:020000040800F2
:1000000080070020890100083911000863100008EA
:100010003511000839020008FD1300080000000037
:10002000000000000000000000000000A111000816
:100030003D0200080000000075110008F9110008D9
:10004000A3010008A3010008A3010008A301000800
:10005000A3010008A3010008A3010008A3010008F0
:10006000A3010008A3010008A3010008A3010008E0
:10007000A3010008A3010008A3010008A3010008D0
:10008000A3010008A3010008A3010008A3010008C0
:10009000A3010008A3010008A3010008A3010008B0
:1000A000A3010008A3010008A3010008A3010008A0
:1000B000A3010008A3010008A3010008A301000890
:1000C000A3010008A3010008A3010008A301000880
:1000D000A3010008BD130008A3010008A301000844
:1000E000A3010008A3010008A301000800F002F822
:1000F00000F03AF80AA090E8000C82448344AAF188
:100100000107DA4501D100F02FF8AFF2090EBAE885
:100110000F0013F0010F18BFFB1A43F0010318473B
:100120002C1300004C130000103A24BF78C878C18B
:10013000FAD8520724BF30C830C144BF04680C60ED
:10014000704700000023002400250026103A28BF35
:1001500078C1FBD8520728BF30C148BF0B60704739
:100160001FB51FBD10B510BD00F033F81146FFF7E5
:10017000F7FF01F051F900F051F803B4FFF7F2FF77
:1001800003BC01F03DF900000948804709480047D9
:10019000FEE7FEE7FEE7FEE7FEE7FEE7FEE7FEE737
:1001A000FEE7FEE704480549054A064B7047000094
:1001B00001120008ED0000088001002080070020E7
:1001C000800300208003002070477047704770470D
:1001D0007047754600F02CF8AE4605006946534658
:1001E00020F00700854618B020B5FFF7DBFFBDE81B
:1001F00020404FF000064FF000074FF000084FF08E
:10020000000B21F00701AC46ACE8C009ACE8C0091E
:10021000ACE8C009ACE8C0098D46704710B504468B
:10022000AFF300802046BDE81040FFF7A6BF0000F6
:10023000004870471C01002000BFFEE77047000027
:1002400070B50446002594F82100022803D004204C
:10025000A063012548E02068006820F00E002168B6
:1002600008602068006820F00100216808601F49CC
:100270002068884201D1012026E01C491431206801
:10028000884201D110201FE0184928312068884297
:1002900001D1801518E015493C312068884201D110
:1002A000801411E0114950312068884202D14FF486
:1002B000803009E00D4964312068884202D14FF452
:1002C000801001E04FF08070084908394860012033
:1002D00084F8210000BF002084F8200000BF606B7C
:1002E00010B12046616B8847284670BD0800024067
:1002F0002DE9F84703460024002000258446002706
:1003000000226EE14FF0010808FA02F4D1F80080F3
:1003100008EA0400A0427DD1DFF8D0A2D1F8048021
:10032000A8EB0A09D0453AD014DCB8F1030F50D03D
:1003300009DCB8F1000F31D0B8F1010F1CD0B8F1D1
:10034000020F49D120E0B8F1110F18D0B8F1120F07
:1003500042D11EE0B9F5881F25D006DCB9F5803FF3
:1003600020D0B9F5801F37D11AE0B9F5001F18D099
:10037000B9F5041F30D117E0D1F80CC02DE0D1F849
:100380000C8008F1040C28E0D1F80C8008F1080C6E
:1003900023E0D1F80C8008F10C0C1EE000BF00BF78
:1003A00000BF00BF00BF00BFD1F80880B8F1000F48
:1003B00002D14FF0040C0BE0D1F80880B8F1010F26
:1003C00003D14FF0080C1C6102E04FF0080C5C6197
:1003D00003E04FF0000C00E000BF00BFFF2801D891
:1003E000984601E003F104084646FF2802D84FEA88
:1003F000820803E0A2F108084FEA88084746D6F8C9
:1004000000804FF00F0909FA07F928EA09080CFAE9
:1004100007F900E088E048EA0908C6F80080D1F84A
:10042000048008F08058B8F1805F7DD100BFDFF80C
:10043000C081D8F8188048F00108DFF8B491C9F8F5
:100440001880C846D8F8188008F00108CDF8008058
:1004500000BF00BF4FEAB9384FEA920958F8295057
:100460004FEA82784FEA18794FF00F0808FA09F836
:1004700025EA0805DFF87C81434502D14FF00008EA
:1004800016E0DFF87481434502D14FF001080FE018
:10049000DFF86881434502D14FF0020808E0DFF839
:1004A0006081434502D14FF0030801E04FF004089A
:1004B0004FEA82794FEA197908FA09F848EA0505FE
:1004C000DFF840814FEA920948F82950D1F80480BA
:1004D00008F48038B8F5803F0AD1DFF82C81D8F8CD
:1004E000008048EA0008DFF82091C9F8008009E0A0
:1004F000DFF81481D8F8008028EA0008DFF80891B6
:10050000C9F80080D1F8048008F40038B8F5003F3D
:1005100010D1DFF8F48008F10408D8F8008048EA28
:100520000008DFF8E49000E05AE009F10409C9F896
:1005300000800DE0DFF8D08008F10408D8F80080D2
:1005400028EA0008DFF8C09009F10409C9F8008022
:10055000D1F8048008F48018B8F5801F0ED1DFF8B8
:10056000A88008F10808D8F8008048EA0008DFF8F9
:10057000989009F10809C9F800800DE0DFF888803B
:1005800008F10808D8F8008028EA0008DFF8789019
:1005900009F10809C9F80080D1F8048008F40018AE
:1005A000B8F5001F0ED1DFF8608008F10C08D8F80C
:1005B000008048EA0008DFF8509009F10C09C9F8FA
:1005C00000800DE0DFF8408008F10C08D8F80080CA
:1005D00028EA0008DFF8309009F10C09C9F800801A
:1005E000521C102AFFF48EAEBDE8F88700001110EF
:1005F0000010024000080140000C014000100140C2
:100600000014014008000140000401400AB10161EA
:1006100001E00B0403617047014800687047000067
:100620001000002002480068401C01490860704723
:100630001000002010B50848006840F0100006497E
:100640000860052000F05EF80F2000F007F800F0C9
:1006500019F8002010BD00000020024070B50446CB
:10066000074800684FF47A71B0FBF1F5284600F0B6
:10067000AFFB00222146501E00F005F8002070BD9F
:100680000000002070472DE9F05F80460D461646B9
:10069000002700F053FD074639462A46334601F04D
:1006A0000700C0F1070ABAF1040F02D94FF0040A9B
:1006B00001E0C0F1070AD14600F1040ABAF1070FC0
:1006C00002D24FF0000A01E0A0F1030AD4464FF035
:1006D000010A0AFA09FAAAF1010A0AEA020A0AFA5E
:1006E0000CFA4FF0010B0BFA0CFBABF1010B0BEA10
:1006F000030B4AEA0B042146404600F027FDBDE803
:10070000F09F000000BF00F00702064B19684FF68B
:10071000FF031940044B0B4343EA0221014B1960CC
:1007200000BF70470CED00E00000FA0570B504460C
:100730000D4600266248006800F00700A8420ED26D
:100740005F48006820F0070028435D4908600846BC
:10075000006800F00700A84201D0012070BD207899
:1007600000F00200022807D15648406820F0F0004F
:10077000A168084353494860207800F00100002830
:100780005DD06068012806D14E48006800F4003052
:1007900090B90120E2E76068022806D14948006864
:1007A00000F0007040B90120D8E74648006800F02A
:1007B000020008B90120D1E74248406820F0030058
:1007C000616808433F494860FFF726FF06466068B6
:1007D000012810D108E0FFF71FFF801B41F288318C
:1007E000884201D90320B9E73648406800F00C0080
:1007F0000428F0D123E06068022810D108E0FFF758
:100800000BFF801B41F28831884201D90320A5E704
:100810002C48406800F00C000828F0D10FE008E0F8
:10082000FFF7FAFE801B41F28831884201D903208C
:1008300094E72448406800F00C000028F0D12048DC
:10084000006800F00700A8420ED91D48006820F09B
:10085000070028431A4908600846006800F00700AE
:10086000A84201D0012079E7207800F00400042894
:1008700007D11448406820F4E060E168084311495A
:100880004860207800F00800082808D10D4840682A
:1008900020F46050216940EAC1000A49486000F034
:1008A00017F808494968C1F30311074A515CC84069
:1008B000064908600F20FFF7D1FE00204EE7000038
:1008C0000020024000100240321400080000002006
:1008D000F0B585B00FF2700C9CE8E01001A8A0E81C
:1008E000E0101DA52D6800950021002400220023A2
:1008F00000201A4D696801F00C05FDB1042D02D0ED
:10090000082D1AD101E016481AE001ADC1F3834663
:10091000AB5D01F480355DB1104D6D68C5F34045A8
:100920001DF805400E4DB5FBF4F505FB03F202E0A2
:100930000C4D03FB05F2104602E000BF084800BF63
:1009400000BF05B0F0BD000002030405060708095A
:100950000A0B0C0D0E0F10100102000000100240D7
:1009600000127A0000093D00F8B504460025207801
:1009700000F00100002878D0F848406800F00C0032
:1009800004280CD0F548406800F00C00082811D16C
:10099000F248406800F48030B0F5803F0AD1EF485B
:1009A000006800F4003000285FD0606800285CD147
:1009B0000120F8BD00BF6068B0F5803F06D1E74870
:1009C000006840F48030E549086028E0606858B964
:1009D000E248006820F48030E0490860084600687A
:1009E00020F4802008601AE06068B0F5A02F0BD1D9
:1009F000DA48006840F48020D8490860084600685A
:100A000040F4803008600AE0D448006820F4803068
:100A1000D24908600846006820F48020086000BFC2
:100A2000606888B1FFF7F8FD054606E0FFF7F4FDC2
:100A3000401B642801D90320BBE7C848006800F4C4
:100A400000300028F2D010E0FFF7E6FD054606E092
:100A5000FFF7E2FD401B642801D90320A9E7BF4846
:100A6000006800F400300028F2D1207800F0020085
:100A7000022857D1B948406800F00C0050B1B7487F
:100A8000406800F00C00082818D1B448406800F411
:100A9000803098B9B148006800F0020020B12069A8
:100AA000012801D0012084E7AC48006820F0F8005C
:100AB000616940EAC100A949086033E02069E8B1F2
:100AC0000120A7490860FFF7A7FD054606E0FFF7EC
:100AD000A3FD401B022801D903206AE79F48006854
:100AE00000F002000028F2D09C48006820F0F800D6
:100AF000616940EAC1009949086013E00020984903
:100B00000860FFF789FD054606E0FFF785FD401BFD
:100B1000022801D903204CE79048006800F0020049
:100B20000028F2D1207800F0080008282DD1A06913
:100B3000B8B101208B490860FFF76EFD054606E05D
:100B4000FFF76AFD401B022801D9032031E78348E3
:100B5000406A00F002000028F2D0012000F00CFBF7
:100B600013E000207F490860FFF756FD054606E0C8
:100B7000FFF752FD401B022801D9032019E77748EF
:100B8000406A00F002000028F2D1207800F0040052
:100B9000042873D100267148C06900F0805070B9F4
:100BA00000BF6E48C06940F080506C49C86108467B
:100BB000C06900F08050009000BF00BF01266A4865
:100BC000006800F48070B0B96748006840F4807035
:100BD00065490860FFF720FD054606E0FFF71CFDAC
:100BE000401B642801D90320E3E65F48006800F455
:100BF00080700028F2D000BFE068012806D1574875
:100C0000006A40F001005549086227E0E06858B9E1
:100C10005248006A20F00100504908620846006A04
:100C200020F00400086219E0E06805280BD14B4869
:100C3000006A40F00400494908620846006A40F032
:100C4000010008620AE04548006A20F001004349BB
:100C500008620846006A20F00400086200BFE068ED
:100C6000A0B1FFF7D9FC054609E0FFF7D5FC401B12
:100C700041F28831884202D903209AE622E03748BF
:100C8000006A00F002000028EFD012E0FFF7C4FC79
:100C9000054608E0FFF7C0FC401B41F2883188425E
:100CA00001D9032085E62D48006A00F002000028E3
:100CB000F0D1012E05D12948C06920F08050274984
:100CC000C86100BFE069C8B32448406800F00C0068
:100CD000082860D0E069022848D100202049086631
:100CE000FFF79AFC054606E0FFF796FC401B02283A
:100CF00001D903205DE61948006800F00070002863
:100D0000F2D1206AB0F5803F07D11448406820F442
:100D10000030A168084311494860D4E9080108433C
:100D20000E49496821F4741108430C4948600120B8
:100D30000B490866FFF770FC054607E02DE0FFF75A
:100D40006BFC401B022801D9032032E603480068EF
:100D500000F000700028F2D01FE0000000100240F8
:100D600000004242800442420070004000200C49D2
:100D70000866FFF751FC054606E0FFF74DFC401BF7
:100D8000022801D9032014E60648006800F000702C
:100D90000028F2D101E001200BE6002009E6000066
:100DA0000000424200100240042808D14FF0E02128
:100DB000096941F004014FF0E022116107E04FF0B2
:100DC000E021096921F004014FF0E0221161704730
:100DD00070B504462546681EB0F1807F01D301201E
:100DE0000FE0681E4FF0E02148610F214FF0FF3007
:100DF00000F0ACF900204FF0E02188610720086185
:100E0000002070BD704701460022002391F8392070
:100E100091F83A3042EA0300704700002DE9F047AC
:100E20000446206805682068C668206847694FF056
:100E30000008C14605F00F08B8F1000F0AD105F00F
:100E4000200038B106F0200020B1204600F02EFA34
:100E5000BDE8F087B8F1000F6DD007F0010018B9B8
:100E600006F49070002866D005F0010030B106F459
:100E7000807018B1E06B40F00100E06305F0040001
:100E800030B107F0010018B1E06B40F00200E06300
:100E900005F0020030B107F0010018B1E06B40F03E
:100EA0000400E06305F0080030B107F0010018B15C
:100EB000E06B40F00800E063E06B68B305F02000F1
:100EC00028B106F0200010B1204600F0EFF92068AC
:100ED0004069C0F38019E06B00F0080010B9B9F167
:100EE000000F22D0204600F0C1F92068406900F0D0
:100EF0004000B0B12068406920F04000216848619E
:100F0000606B50B11748616B4863606BFFF798F9ED
:100F100010B1606B416B88470CE02046FFF772FF11
:100F200008E02046FFF76EFF04E02046FFF76AFF67
:100F30000020E0638CE705F0800030B106F080000F
:100F400018B1204600F005FA82E705F0400030B104
:100F500006F0400018B1204600F098F978E700BF8D
:100F600076E700005912000810B5034693F83A00DE
:100F700020282FD101B10AB9012010BD00BF93F87C
:100F80003800012801D10220F7E7012083F838005A
:100F900000BF99629A85DA850020D863222083F801
:100FA0003A0000BF002083F8380000BF1868C0680E
:100FB00040F480701C68E0601868406940F00100EF
:100FC0001C6860611868C06840F020001C68E06020
:100FD0000020D2E70220D0E71D4A0168914236D1B5
:100FE0001C49098801F4004189BB1A49098801F4A8
:100FF000804171B1184909780A2903D00021154AA6
:10100000118024E01349098841F40041114A1180FC
:101010001DE0114909780D2906D10E49098841F4CE
:1010200080410C4A118012E00B490978094A128864
:10103000C2F30D02094B995406490988491C054A17
:10104000118011460988C72901DD002111807047F0
:10105000003801400C0000200E0000201400002089
:10106000704700BFFEE7000000B585B000BF2D4807
:10107000806940F010002B4988610846806900F0C3
:101080001000009000BF00BFFF20019001200290DF
:101090000390032004900022FF212348FFF7B6FAB3
:1010A00001A92148FFF724F900BF1E48806940F0DC
:1010B00008001C4988610846806900F0080000901B
:1010C00000BF00BFFF200190012002900390032089
:1010D00004900022FF211548FFF798FA01A9134850
:1010E000FFF706F900BF0F48806940F004000D4982
:1010F00088610846806900F00400009000BF00BFCE
:10110000FF20019001200290039003200490002210
:10111000FF210748FFF77AFA01A90548FFF7E8F829
:1011200005B000BD0010024000100140000C01405D
:101130000008014000BFFEE7704700000248006859
:10114000C0F30220704700000CED00E010B500284D
:1011500007DA0A07140E054A00F00F031B1FD454C8
:1011600003E00A07130E024A135410BD18ED00E005
:1011700000E400E07047000008B508490968C908A4
:101180004FF47A72B1FBF2F14143009100BF00BF0E
:1011900000994A1E00920029F9D108BD00000020E4
:1011A000704730B58FB0054600240120059000043B
:1011B00006900020079002200C90C1030D910E951F
:1011C00005A8FFF7D1FB04460CB100BFFEE70F20D6
:1011D000009002200190002002904FF48060039064
:1011E0000020049002216846FFF7A0FA04460CB1E3
:1011F00000BFFEE70FB030BD10B5FFF713FA10BD0A
:101200001148006840F001000F4908600846406836
:101210000E4908400C494860084600680C490840DF
:10122000094908600846006820F4802008600846E4
:10123000406820F4FE0048604FF41F008860C80337
:101240000449086070470000001002400000FFF8E9
:10125000FFFFF6FE08ED00E070B505466C6A002061
:10126000E085E0842046FFF7CDFD70BD0168C968C8
:1012700021F490710268D1600168496921F001018F
:1012800002685161202180F83A10704710B5044679
:101290002068C06820F040002168C860202084F8E1
:1012A00039002046FFF7DCFE002010BD70B5044673
:1012B00094F83A0022284AD1A068B0F5805F13D193
:1012C000A56A206940B920684068C0F308002880FA
:1012D000A06A801CA06219E020684068C0B2288023
:1012E000A06A401CA06211E0206938B920684068FB
:1012F000C1B2A26A501CA062117007E02068406869
:1013000000F07F01A26A501CA0621170E08D401EA7
:1013100080B2E085C8B92068C06820F0200021684C
:10132000C8602068C06820F480702168C8602068A8
:10133000406920F0010021684861202084F83A00CB
:101340002046FFF749FE002070BD0020FCE7022088
:10135000FAE7014691F8390021282CD18868B0F5C8
:10136000805F0FD10A6A1088C0F308000B685860CC
:10137000086918B9086A801C086209E0086A401CFC
:10138000086205E00B6A581C086218780B68586000
:10139000C88C401E80B2C88458B90868C06820F064
:1013A00080000B68D8600868C06840F040000B6897
:1013B000D860002070470220FCE7000010B5002430
:1013C0000C48FFF72BFD00BF01E0641C00BF09487B
:1013D000FFF719FD2028F8D100BF002401E0641CAC
:1013E00000BF012204490348FFF7BEFD0028F6D1E3
:1013F00000BF10BDDC0000200E00002000BFFEE793
:1014000000BF704710B504460420FFF7CDFC01482B
:10141000046010BD04000020FFF70CF94FF4E01049
:10142000FFF7BFFE4820FFF7EDFFFFF71DFE00BFEF
:10143000FEE70000000000000000010203040607B0
:101440000809000000000102030400006C140008F9
:10145000000000201400000028010008801400088B
:10146000140000206C0700004401000800A24A0498
:10147000000000000000000000000000000000006C
:04000005080000ED02
:00000001FF
