:020000040800F2
:1000000040080020ED1C0008410D0008430D0008C9
:10001000470D00084B0D00084F0D000800000000C0
:10002000000000000000000000000000530D000868
:10003000550D000800000000570D0008590D00087C
:10004000071D0008071D0008071D0008071D000800
:10005000071D0008071D0008071D0008071D0008F0
:10006000071D0008071D0008071D0008071D0008E0
:10007000071D0008071D0008071D0008071D0008D0
:10008000071D0008071D0008071D0008071D0008C0
:10009000071D0008071D0008071D0008071D0008B0
:1000A000071D0008071D0008071D0008071D0008A0
:1000B0001D190008FD18000889460008071D0008E2
:1000C000071D0008071D0008071D0008071D000880
:1000D000071D0008F31B00088D130008071D00080A
:1000E000071D0008071D0008071D0008071D000860
:1000F000071D0008071D0008071D0008071D000850
:10010000071D0008071D0008071D0008071D00083F
:10011000071D0008071D0008071D0008071D00082F
:10012000071D0008071D0008071D0008071D00081F
:1001300000F002F800F06BF80AA090E8000C82448E
:100140008344AAF10107DA4501D100F060F8AFF26B
:10015000090EBAE80F0013F0010F18BFFB1A43F0A5
:1001600001031847245F0000445F00000A444FF079
:10017000000C10F8013B13F0070408BF10F8014B06
:100180001D1108BF10F8015B641E05D010F8016B4B
:10019000641E01F8016BF9D113F0080F1EBF10F8AF
:1001A000014BAD1C0C1B09D16D1E58BF01F801CBD2
:1001B000FAD505E014F8016B01F8016B6D1EF9D555
:1001C0009142D6D37047000000230024002500266A
:1001D000103A28BF78C1FBD8520728BF30C148BFAA
:1001E0000B607047642905F02380752905F0208095
:1001F000782905F05980632905F0AD81732905F050
:10020000B281002070471FB51FBD10B510BD05F0AD
:10021000DDF91146FFF7F7FF00F008F805F0FBF9EC
:1002200003B4FFF7F2FF03BC01F088FC01F01CFCF3
:100230004FF4A06001F07AFD4FF4E13001F08DFC45
:1002400000F07CFE00F0E4FE01F06EF901F0E2F94E
:1002500001F010FA01F093FA41F61F41092001F074
:10026000F7FA4721092001F01CFB0020FA49086039
:10027000FEE3FA480078002829DDF84800780628CF
:1002800025DAF7480078F7490978401A0A281EDD70
:100290000021F54802F06CFF0020F449088009E0D5
:1002A0000020F349F14A12888854F0480088401C25
:1002B000EE490880ED4800880628F1DB0020E74978
:1002C0000870EC490870E6490870E6490870E9488A
:1002D00000780128CCD10020E7490880E748407920
:1002E0000D28C5D1E5488078092877D2DFE810F0DD
:1002F00076000900F8005401D20172021203600373
:10030000F203DE48C078092812D2DFE800F00512B7
:100310002334455668798A00CC21D94801F083FE00
:100320003021D84801F07FFE0321D74801F07BFE41
:1003300088E00421D24801F074FEC821D04801F0C1
:1003400072FE3021CF4801F06EFE0321CE4801F04D
:100350006AFE77E00821CA4801F063FEC421C8485C
:1003600001F061FE3021C74801F05DFE0321C6485F
:1003700001F059FE66E04021C14801F052FE8C2197
:10038000BF4801F050FE3021BE4801F04CFE032171
:10039000BD4801F048FE55E08021B94801F041FE1A
:1003A0004C21B74801F03FFE3021B64801F03BFE3A
:1003B0000321B54801F037FE44E01021B14801F0B7
:1003C00030FECC21AE4801F02EFE2021AD4801F0D8
:1003D0002AFE0321AC4801F026FE33E099E22021F9
:1003E000A84801F01EFECC21A54801F01CFE1021FA
:1003F000A44801F018FE0321A34801F014FE21E0F7
:100400000121A14801F00DFECC219D4801F00BFE19
:1004100030219C4801F007FE02219B4801F003FEB9
:1004200010E00221984801F0FCFDCC21944801F035
:10043000FAFD3021934801F0F6FD0121924801F0C8
:10044000F2FD00BF00BF01208349086000BF4021CA
:100450008E4802F003FA0028F9D0AA218B4802F056
:100460008FF900BF4021894802F0F8F90028F9D03F
:100470000121864802F084F900BF4021834802F040
:10048000EDF90028F9D00121804802F079F900BF88
:1004900040217E4802F0E2F90028F9D000217B4893
:1004A00002F06EF900BF4021784802F0D7F9002829
:1004B000F9D00021754802F063F900BF402173486C
:1004C00002F0CCF90028F9D00D21704802F058F95B
:1004D00000BF40216D4802F0C1F90128F9D1EFE3D6
:1004E000664800796549C97800EB012068490880B1
:1004F00008460188002003F050FD0120564908609D
:1005000000BF4021614802F0A9F90028F9D0AA21D2
:100510005E4802F035F900BF40215C4802F09EF9C8
:100520000028F9D00121594802F02AF900BF4021E2
:10053000564802F093F90028F9D00221534802F0FE
:100540001FF900BF4021514802F088F90028F9D076
:100550004748C1784D4802F013F900BF40214B488D
:1005600002F07CF90028F9D041480179474802F0AF
:1005700007F900BF4021454802F070F90028F9D082
:100580000D21424802F0FCF800BF40213F4802F034
:1005900065F90128F9D193E33848C07810B1FF28F4
:1005A0000CD105E04FF48071354801F03CFD05E0C9
:1005B0004FF48071324801F034FD00BF00BF0120CC
:1005C0002549086000BF4021304802F047F9002863
:1005D000F9D0AA212D4802F0D3F800BF40212B48C2
:1005E00002F03CF90028F9D00121284802F0C8F8AF
:1005F00000BF4021254802F031F90028F9D003213D
:10060000224802F0BDF800BF4021204802F026F940
:100610000028F9D000211D4802F0B2F800BF4021A7
:100620001A4802F01BF90028F9D00021174802F0FF
:10063000A7F800BF4021154802F010F90028F9D0B2
:100640000D21124802F09CF800BF40210F4802F033
:1006500005F90128F9D133E3AC0121424E00002015
:10066000340000204D000020000400400000002065
:10067000440000204F0000204A00002050000020CD
:100680000008014000100140000C0140003801400A
:10069000020000204FF48071FE4801F0C4FC00BF4E
:1006A000FD4800680028FBD000BFFB480068002818
:1006B000FBD101F03DF8F9490880002001F038F83D
:1006C000F6494880002001F033F8F4498880084654
:1006D00000880004498800EB0120F049898808441B
:1006E000EF4908600846006805F086FB804605F083
:1006F0005DFA0646EB4AEC4B05F05AF9044604F065
:100700009FFFEA490860EA49E848006805F088FB6D
:10071000044605F039FBE74908800846008800F4E4
:100720007F40E5490880084600880012E3490870C8
:10073000E048007848700120E149086000BF40218E
:10074000E04802F08BF80028F9D0AA21DD4802F039
:1007500017F800BF4021DB4802F080F80028F9D0EC
:100760000121D84802F00CF800BF4021D54802F022
:1007700075F80028F9D00421D24802F001F800BF32
:100780004021D04802F06AF80028F9D0CB4801781F
:10079000CC4801F0F5FF00BF4021CA4802F05EF8E6
:1007A0000028F9D0C5484178C64801F0E9FF00BFEC
:1007B0004021C44802F052F80028F9D00D21C14868
:1007C00001F0DEFF00BF4021BE4802F047F80128DB
:1007D000F9D175E24FF48071AE4801F022FC00BF00
:1007E000AD4800680028FBD000BFAB480068002877
:1007F000FBD100F09DFFA9490880002000F098FF80
:10080000A6494880002000F093FFA449888008464C
:1008100000880004498800EB0120A0498988084429
:100820009F4908600846006805F0E6FA804605F032
:10083000BDF90646A44A9C4B05F0BAF8044604F0FC
:10084000FFFE9A490860A1499848006805F0E8FA57
:10085000044605F099FA974908800846008800F494
:100860007F40954908800846008800129349087027
:1008700090480078487001209149086000BF4021ED
:10088000904801F0EBFF0028F9D0AA218D4801F033
:1008900077FF00BF40218B4801F0E0FF0028F9D02E
:1008A0000121884801F06CFF00BF4021854801F01C
:1008B000D5FF0028F9D00521824801F061FF00BF73
:1008C0004021804801F0CAFF0028F9D07B48017818
:1008D0007C4801F055FF00BF40217A4801F0BEFF7F
:1008E0000028F9D075484178764801F049FF00BFEB
:1008F0004021744801F0B2FF0028F9D00D21714861
:1009000001F03EFF00BF40216E4801F0A7FF012823
:10091000F9D1D5E14FF480715E4801F082FB0120EE
:100920006749086000BF4021664801F097FF002832
:10093000F9D0FA21634801F023FF00BF402161484C
:1009400001F08CFF0028F9D0FA215E4801F018FF71
:100950000021084603F021FB642001F0C2F840F2B8
:10096000FF51002003F019FB0121880702F000FC71
:1009700000F0E2FF00BF4021524801F06FFF002865
:10098000F9D0FB214F4801F0FBFE00BF40214D484C
:1009900001F064FF0028F9D0FB214A4801F0F0FE85
:1009A00000BF4021474801F059FF0128F9D187E1F4
:1009B000002240F22551434801F081FE012000F061
:1009C0006DFC072000F06AFC652000F067FC422007
:1009D00000F064FC202000F061FCDC2001F081F8D4
:1009E00000F073FC01203649086000BF4021354803
:1009F00001F034FF0028F9D0AA21324801F0C0FEEE
:100A000000BF40212F4801F029FF0028F9D0012123
:100A10002C4801F0B5FE00BF40212A4801F01EFF1E
:100A20000028F9D00721274801F0AAFE00BF402185
:100A3000244801F013FF0028F9D025480178214807
:100A400001F09EFE00BF40211E4801F007FF002874
:100A5000F9D01F4841781B4801F092FE00BF4021A9
:100A6000184801F0FBFE0028F9D00D21154800E0E0
:100A70003CE101F085FE00BF4021124801F0EEFE8E
:100A80000128F9D1012240F225510E4801F017FE4C
:100A900016E10000000801403081214204000020DE
:100AA0000C000020400100500000943E1000002087
:100AB00000504348140000201600002018000020B9
:100AC000AC01214200380140500000280000C8431A
:100AD00030000020002240F22551854801F0EFFD52
:100AE0004FF48071834801F09CFA0120824908602C
:100AF000002082490880D3E080480088804908802F
:100B000008460188002003F048FA052000F0E9FFBC
:100B1000012000F0C3FB072000F0C0FB652000F0BF
:100B2000BDFB422000F0BAFB202000F0B7FBDC2028
:100B300000F0D7FF00F0C9FB00BF40216C4801F076
:100B40008DFE0028F9D06F480178694801F018FE41
:100B500000BF4021664801F081FE0028F9D06948B5
:100B60004178634801F00CFE00BF4021604801F06D
:100B700075FE0028F9D0FA215D4801F001FE00BFA2
:100B800040215B4801F06AFE0128F9D1AF215848A5
:100B900001F0F6FD00BF4021554801F05FFE01283D
:100BA000F9D100BF584800680028FBD000BF564864
:100BB00000680028FBD100F0BBFD544908800020EC
:100BC00000F0B6FD51494880002000F0B1FD4F49CA
:100BD0008880084600880004498800EB01204B49C2
:100BE000898808444A4908600846006805F004F905
:100BF000804604F0DBFF0646464A474B04F0D8FE29
:100C0000044604F01DFD4549086045494348006815
:100C100005F006F9044605F0B7F842490880084691
:100C2000008800F47F404049088008460088001290
:100C30003E4908703B480078487000BF40212C486E
:100C400001F00CFE0028F9D038480178284801F05E
:100C500097FD00BF4021264801F000FE0028F9D092
:100C600032484178224801F08BFD00BF40212048E6
:100C700001F0F4FD0028F9D0A5211D4801F080FD08
:100C800000BF40211A4801F0E9FD0128F9D15A219D
:100C9000174801F075FD19480088401C1749088065
:100CA00016480088B0F57A7FFFF626AF00BF4021D6
:100CB0000F4801F0D3FD0128F9D100200E4908604A
:100CC00000BF00201A49087048708870C870087109
:100CD000487109490860174908701748D0F8BC01E5
:100CE00008B9012000E0002014490860FFF7C1BAEC
:100CF0000038014000080140AC0121420000002002
:100D00000200002030000020308121420400002039
:100D10000C000020500000280000943E100000202D
:100D20000000C84314000020160000201800002016
:100D3000500000204F00002000002242BC0122424F
:100D4000704700BFFEE700BFFEE700BFFEE700BF41
:100D5000FEE7704770477047704700000CB50020F1
:100D6000019000906C48006840F480306A49086047
:100D700000BF6948006800F4003000900198401CF2
:100D80000190009818B90198B0F5A06FF1D16248B0
:100D9000006800F4003010B10120009001E0002054
:100DA00000900098012843D15C48006840F0100092
:100DB0005A4908600846006820F0030008600846A9
:100DC000006840F00200086053484068524948609B
:100DD0000846406848600846406840F480604860C3
:100DE0000846406820F47C1048600846406840F49B
:100DF000E81048600846006840F08070086000BF56
:100E00004548006800F000700028F9D0424840686A
:100E100020F00300404948600846406840F0020066
:100E2000486000BF3C48406800F00C000828F9D139
:100E30000CBD10B5FFF792FF10BD10B53648006825
:100E400040F00100344908600846406834490840D1
:100E50003149486008460068324908402E49086018
:100E60000846006820F4802008600846406820F4A6
:100E7000FE0048604FF41F008860FFF7DAFF4FF074
:100E800000602949086010BD10B500210020002233
:100E9000214B5B6803F00C0121B1042906D008291D
:100EA00028D107E0214B224C236027E01F4B204C28
:100EB000236023E0184B5B6803F47010164B5B68EB
:100EC00003F48032022303EB904022B9194B4343D1
:100ED000174C23600DE0104B5B6803F4003323B123
:100EE000144B4343124C236003E0104B4343104C1C
:100EF000236003E00D4B0E4C236000BF00BF064B88
:100F00005B68C3F303130C4CE15C094B1B68CB40DB
:100F1000074C236010BD000000100240002002407A
:100F20000000FFF8FFFFF6FE08ED00E000127A0077
:100F30001C00002000093D002000002008B5012110
:100F4000042001F07DFA0121082001F079FA012145
:100F5000102001F075FA4FF40040ADF800001020A9
:100F60008DF8030003208DF802006946244800F044
:100F7000ABFF012023490860C002ADF8000010203B
:100F80008DF8030003208DF8020069461E4800F02A
:100F90009BFF4FF48070ADF8000010208DF8030027
:100FA00003208DF802006946174800F08DFFCC2021
:100FB000ADF8000010208DF8030003208DF802002A
:100FC0006946114800F080FF3020ADF80000102085
:100FD0008DF8030003208DF802006946084800F0F0
:100FE00073FF0320ADF8000010208DF803000320EC
:100FF0008DF802006946054800F066FF08BD000054
:1010000000100140BC01224200080140000C0140D8
:1010100008B50121082001F013FA4FF44060ADF843
:10102000000010208DF8030003208DF802006946AF
:10103000974800F049FF4FF44061954800F0F1FFF8
:1010400008BD10B59248001D006820F0F0209049BE
:10105000091D08600846006840F4405008600120FF
:101060008C4908608C49C1F8A801042000F015FDE6
:10107000002088490860042000F00FFD0020864908
:10108000C1F8A80110BD10B58148001D006820F00E
:10109000F0207F49091D08600846006840F4405070
:1010A000086000207B49091F08607B49C1F8AC013A
:1010B000042000F0F2FC01207649091F08607649FF
:1010C000C1F8AC01042000F0E8FC10BD10B500240C
:1010D0006F48001D006820F0F0206D49091D086070
:1010E0000846006840F40040086001206949086033
:1010F00000F0D3FC01206849C1F8A80100F0CDFC44
:1011000007E0601CC4B2FA2C03DDFFF7BCFF01202E
:1011100010BD6048803800680028F2D15D49091F81
:10112000086000BFF4E710B500205A49091F0860A5
:101130005748001D006820F0F0205549091D08603F
:101140000846006840F44050086000205249C1F849
:10115000AC01022000F0A1FC01204E49091F0860EB
:10116000022000F09AFC00204B49C1F8A80110BDF4
:1011700010B500204749091F08604548001D006858
:1011800020F0F0204249091D08600846006840F43C
:101190004050086001204049C1F8AC01022000F035
:1011A0007CFC01203B49091F0860022000F075FC0F
:1011B00000203949C1F8A80110BD70B50446344873
:1011C000001D006820F0F0203149091D0860084624
:1011D000006840F44050086000202E49091F086054
:1011E00000251DE0E00918B101202A49086002E04D
:1011F0000020284908606006040E022000F04DFC23
:1012000001202449091F0860022000F046FC00204C
:101210002149C1F8A801022000F03FFC681CC5B2BA
:10122000082DDFDB70BD70B5054600241848001D91
:10123000006820F0F0201649091D08600846006883
:1012400040F400400860002617E000201149091F03
:101250000860022000F021FC01200F49C1F8A8011C
:101260006006040E0B488038006808B1601CC4B2E8
:10127000012000F012FC701CC6B2082EE5DB15B987
:10128000FFF776FF01E0FFF74EFF204670BD00003C
:10129000000C0140AC8121420080214210B504467F
:1012A000FFF7CFFEB820FFF788FF00BFFFF70EFF64
:1012B0000028FBD12046FFF780FF00BFFFF706FFA5
:1012C0000028FBD1FFF7DFFE10BD10B5FFF7B9FE18
:1012D000B920FFF772FF00BFFFF7F8FE0028FBD12F
:1012E0000120FFF7A0FF274908700020FFF79BFFB0
:1012F00024494870FFF7C7FE052000F0CEFB10BD63
:101300002DE9F05F0024A2460120FFF7C7FF10205F
:10131000FFF7C4FFB42000F0C0FBFFF7D6FF00BF0B
:1013200005E0184804780AF1010000F0FF0ABAF15C
:10133000030FF6DB1348407800EB0424204604F04A
:1013400043FD834604F032FC07464FF033320E4B28
:1013500004F0A8F9054604F073F98146BDE8F09F52
:1013600010B50120FFF79AFF0720FFF797FF4220F3
:10137000FFF794FF6520FFF791FF1020FFF78EFF26
:1013800010BD0000300000203333F33F10B540F2B1
:1013900025515F4801F078FA80B15D4801F0F4F919
:1013A000C4B25C480078402808DA5B48594909789B
:1013B000445458480078401C5649087010BD10B578
:1013C00086B004460121242001F03AF801214804A6
:1013D00001F043F88020ADF8140010208DF81700BC
:1013E00003208DF8160005A94C4800F06DFD04207F
:1013F000ADF8140018208DF8170005A9484800F032
:1014000063FD0820ADF8140004208DF8170005A92D
:10141000434800F059FD0121480401F038F800214B
:101420004FF4003001F033F801940020ADF80800CB
:10143000ADF80A00ADF80C00ADF810000C20ADF8C6
:101440000E0001A9324801F0A2F826208DF8000014
:1014500003208DF801008DF8020001208DF80300B3
:10146000684600F068FC012240F22551284801F04E
:1014700026F90121264801F016F9002029490860C3
:1014800006B010BD70B505460E460120254908601E
:1014900000240CE000BF40211D4801F0DFF90028C6
:1014A000F9D0295D1A4801F06BF9601CC4B2B4424E
:1014B000F0DB00BF4021164801F0D0F90028F9D038
:1014C0000020144908701749086070BD2DE9F041EB
:1014D00007460D460F4806780024002028700A2091
:1014E00000F0FFFA0B48007886420FD176B100BFBA
:1014F00004E00948005D3855601CC4B2B442F8DB12
:10150000044800782870002002490870BDE8F08186
:1015100000440040320000209C01002000140140E3
:1015200000080140AC01214200B587B001214FF411
:10153000017000F085FF4FF4004000F0E5FE01204F
:10154000ADF8040000208DF8070001A92F4800F035
:10155000BBFC2F4802F0EAF8002002908DF80C0046
:1015600001208DF80D004FF46020049000200590BC
:1015700001208DF8180002A9254802F0FEF801218B
:10158000234802F026F9224802F045F900BF20481E
:1015900002F046F90028FAD11D4802F04BF900BFCD
:1015A0001B4802F04CF90028FAD107B000BD10B575
:1015B0000446002301222146154802F076F9012154
:1015C000134802F046F900BF0221114802F0B2FAB6
:1015D0000028F9D00E4802F0CFF910BD2DE9F041F6
:1015E00007460C460025002608E03846FFF7DFFFD7
:1015F0000544052000F075FA701CC6B2A642F4DB63
:10160000B5FBF4F080B2BDE8F081000000080140B5
:101610000024014008B50121102000F011FF012134
:10162000082000F00DFF4FF40070ADF8000010200E
:101630008DF8030003208DF8020069460B4800F086
:1016400043FC4FF48050ADF8000004208DF80300F7
:1016500003208DF802006946054800F035FC4FF480
:101660000071024800F0DDFC08BD000000100140E0
:10167000000C014000B585B00121042000F0E0FE1F
:101680000121480700F0E9FE1020ADF8100000200D
:101690008DF8130003208DF8120004A9214800F0F2
:1016A00013FC10211F4800F0BCFC002000900190AA
:1016B0000290022003906946002002F0F0FB012115
:1016C000002002F009FC0021084602F066FC05B08B
:1016D00000BD2DE9F0470446204604F08DFB81460D
:1016E0001149484604F08EFA81464FF08B41484636
:1016F00004F096FB824604F059FA07464FF0663232
:101700000A4B03F0CFFF054603F09AFF8146484697
:1017100004F03AFB85B22946002002F03EFCBDE809
:10172000F08700000008014000007A4466660A4025
:1017300070B50546002405E0601CC4B2C82C01DD6C
:10174000002070BD0221404802F067FB0028F3D062
:1017500029463D4802F00EFB002405E0601CC4B29F
:10176000C82C01DD0020ECE70121374802F055FBD1
:101770000028F3D0344802F0FFFAC0B2E1E700B528
:1017800087B00121082000F05BFE0121880300F0F2
:1017900064FE4FF42040ADF8180018208DF81B00AF
:1017A00003208DF81A0006A9284800F08DFB4FF49D
:1017B0008040ADF8180048208DF81B0003208DF8FC
:1017C0001A0006A9214800F07FFB4FF460411F4832
:1017D00000F029FC0020ADF804004FF48270ADF851
:1017E00006000020ADF80800ADF80A00ADF80C00C6
:1017F0004FF40070ADF80E001020ADF8100000207E
:10180000ADF812000720ADF8140001A90E4802F04F
:10181000DBF901210C4802F07CFAFF20FFF788FF7A
:1018200007B000BD10B50446074800884FF6C771E1
:1018300008400549088008460088204308800121A7
:10184000014802F066FA10BD00380040000C01406B
:101850007FB505460C460121022000F0FEFDADF8E3
:101860000850ADF804400020ADF80A00ADF80600BD
:1018700001A9754801F020F901221146724801F0D2
:1018800092FC1D208DF8000000208DF8010003203F
:101890008DF8020001208DF80300684600F04BFA35
:1018A0007FBD7FB505460C460121084600F0D5FDF9
:1018B000ADF80850ADF804400020ADF80A00ADF8CE
:1018C000060001A94FF0804001F0F6F80122114610
:1018D000900701F068FC1C208DF8000002208DF8B4
:1018E00001008DF8020001208DF80300684600F029
:1018F00022FA0121880701F03BFC7FBD10B50121D0
:10190000514801F0FEFE40B101214F4801F00AFFAD
:101910004E480078401C4D49087010BD10B501219B
:10192000880701F0EEFE30B10121880701F0FAFED0
:1019300001204749087010BD2DE9F04FADF2D47D6C
:10194000002301221946434801F0AFFF012141481D
:1019500001F07FFF4FF0000A2CE000BF3C48007808
:101960000028FBD000BF02213A4802F0E3F800282B
:10197000F9D0384802F000F8009004F03DFA8346B0
:1019800004F014F906464FF06632334B04F010F8B9
:1019900004460022314B04F00BF8804603F0DAFFD6
:1019A00001A921F81A000020294908700AF1010054
:1019B0001FFA80FABAF57A7FCFDB00214FF0804022
:1019C00001F0D6FB0120264908604FF0000A1EE016
:1019D00000BF4021234800F041FF0028F9D001A8B2
:1019E00030F81A0001121F4800F0CAFE00BF402163
:1019F0001C4800F033FF0028F9D001A830F81A1075
:101A0000184800F0BDFE0AF101001FFA80FABAF58D
:101A10007A7FDDDB00BF4021124800F01FFF002865
:101A2000F9D04FF0000A07E0002001A921F81A00C0
:101A30000AF101001FFA80FABAF57A7FF4DB0DF2A1
:101A4000D47DBDE8F08F0000000400403400002089
:101A5000380000200024014066664A3F00007940BB
:101A6000AC0121420038014010B56FF0040000F0D5
:101A7000ACF92E4800682E49B0FBF1F02D490870F2
:101A80000846007800EB4001C1EBC0104FF6FF7133
:101A900001EAC0002849088010BD0146254A127895
:101AA0004A434FF0E0235A6100229A611A461269B4
:101AB00042F001021A6100BF4FF0E022106900F00D
:101AC00001021AB100F48032002AF5D04FF0E02272
:101AD000126922F001024FF0E0231A6100229A619C
:101AE00070470146144A12884A434FF0E0235A6176
:101AF00000229A611A46126942F001021A6100BF7F
:101B00004FF0E022106900F001021AB100F48032B7
:101B1000002AF5D04FF0E022126922F001024FF0C6
:101B2000E0231A6100229A61704700001C00002027
:101B300000127A003A0000203C000020014600BF5D
:101B4000704700BF5F4A128802F04002002AF9D0B5
:101B5000C2B25C4B1B1D1A80704710B586B004469C
:101B6000012144F2040000F06BFC4FF40070ADF86A
:101B7000140003208DF8160018208DF8170005A911
:101B8000514800F0A1F94FF48060ADF81400042032
:101B90008DF8170005A94C4800F096F925208DF81E
:101BA000000003208DF801008DF8020001208DF85F
:101BB0000300684600F0BFF801940020ADF808006B
:101BC000ADF80A00ADF80C00ADF810000C20ADF82F
:101BD0000E0001A93B4800F0DAFC012240F2255139
:101BE000384800F06CFD0121364800F05CFD06B07D
:101BF00010BD10B540F22551324800F045FE0028D6
:101C00005ED0304800F0C0FD3049087008460078CA
:101C10002F49304A1278885408460078AA280ED1F5
:101C20002C480078401C2B49087000202A49087075
:101C30002A49087001212A4801F09AFA08E0002098
:101C40002449087040F225511E4800F047FE10BD9F
:101C500020480078002808DD1E480078062804DAAD
:101C60001E4800781C49087025E01A4800780628AC
:101C700021DB00211A4801F07BFA00201749087087
:101C80001549087001201749087000201149087093
:101C90000F480078144908700D48407848700C4887
:101CA000807888700A48C078C8700948007908713F
:101CB00007484079487140F22551024800F00EFE75
:101CC00000BFC4E700380140000801404C0000207C
:101CD000440000204E0000204D0000203400002071
:101CE000000400404F0000205000002009488047B9
:101CF00009480047FEE7FEE7FEE7FEE7FEE7FEE7EE
:101D0000FEE7FEE7FEE7FEE704480549054A064B05
:101D1000704700003B0E000831010008400200201F
:101D200040080020400400204004002031490143C5
:101D3000314A1160704770B5002100230F22C4782A
:101D400004B32D4C246804F4E064C4F5E064210A73
:101D5000C1F10403CA40447804FA03F184781440C2
:101D600021430901254C0678A155047804F01F058C
:101D70000124AC4005786D11AD0005F1E025C5F8F2
:101D8000004109E0047804F01F050124AC401C4D1B
:101D90000678761145F8264070BD1A4A0A4002437B
:101DA000154B1B1F1A60704739B1134A121D126878
:101DB0000243114B1B1D1A6006E00F4A121D1268E8
:101DC00082430D4B1B1D1A607047042808D14FF049
:101DD000E021096941F004014FF0E022116107E0C0
:101DE0004FF0E021096921F004014FF0E022116178
:101DF000704700000000FA050CED00E000E400E090
:101E000080E100E080FFFF1F10B50446CC4884420B
:101E100008D10121042000F02DFB0021042000F056
:101E200029FB46E0C748844208D10121082000F080
:101E300021FB0021082000F01DFB3AE0C24884424B
:101E400008D10121102000F015FB0021102000F026
:101E500011FB2EE0BD48844208D10121202000F072
:101E600009FB0021202000F005FB22E0B848844255
:101E700008D10121402000F0FDFA0021402000F0AF
:101E8000F9FA16E0B348844208D10121802000F01D
:101E9000F1FA0021802000F0EDFA0AE0AE48844219
:101EA00007D10121801500F0E5FA0021A01500F00E
:101EB000E1FA10BD10B50121084600F0DBFA00215F
:101EC000012000F0D7FA10BD2DE9F04102460025AF
:101ED0000026002000230024002791F803C00CF006
:101EE0000F0591F803C00CF0100CBCF1000F03D0EB
:101EF00091F802C04CEA050591F800C0BCF1000F52
:101F000031D0146800202BE04FF0010C0CFA00F3E4
:101F1000B1F800C00CEA03069E4220D183004FF0C6
:101F20000F0C0CFA03F7BC4305FA03FC4CEA04045B
:101F300091F803C0BCF1280F06D14FF0010C0CFA48
:101F400000FCC2F814C00AE091F803C0BCF1480FCD
:101F500005D14FF0010C0CFA00FCC2F810C0401C77
:101F60000828D1D31460B1F800C0BCF1FF0F34DDF4
:101F7000546800202EE000F1080C4FF0010808FA28
:101F80000CF3B1F800C00CEA03069E4221D1830095
:101F90004FF00F0C0CFA03F7BC4305FA03FC4CEAB4
:101FA000040491F803C0BCF1280F05D100F1080C1E
:101FB00008FA0CF8C2F8148091F803C0BCF1480F7D
:101FC00007D100F1080C4FF0010808FA0CF8C2F82C
:101FD0001080401C0828CED35460BDE8F0814FF635
:101FE000FF710180022181700421C1707047024697
:101FF000002093680B400BB1012000E000207047E7
:102000000146886880B2704702460020D3680B40C2
:102010000BB1012000E0002070470146C86880B283
:10202000704701617047416170470AB1016100E08A
:1020300041617047C16070474FF480320A4382614A
:102040008161826182698269704702460020434B48
:1020500018684FF68073184040EA021008433F4B5F
:10206000186070473E49C8617047F0B50A460023C2
:1020700000240021002500F00046B6F1004F02D1F7
:10208000364EF16901E0354E7168C0F3034583B205
:1020900000F44016B6F5401F08D121F070612F4EB4
:1020A000766826F070662D4F7E6012E000F4801690
:1020B000B6F5801F06D1032606FA05F4A14341F0C8
:1020C000706106E0460D360103FA06F6B14341F0B1
:1020D000706122B1460D360103FA06F6314300F075
:1020E0000046B6F1004F02D11C4EF16101E01B4EDB
:1020F0007160F0BD30B500228B071C0F0F2303FA6F
:1021000004F2164B08338C1053F824309343134CCD
:1021100008348D1044F8253023468C1053F82430B1
:102120008C07240F00FA04F423430C4C08348D1060
:1021300044F8253030BD0A49DC31086070470000A2
:1021400000080140000C0140001001400014014053
:1021500000180140001C0140002001400000014027
:1021600000002042DF48006840F00100DD490860BF
:1021700008464068DC490840DA494860084600687B
:10218000DA490840D74908600846006820F48020F2
:1021900008600846406820F4FE0048604FF41F00C5
:1021A00088607047CF49096821F48031CD4A1160B9
:1021B0001146096821F480211160B0F5803F03D0F9
:1021C000B0F5802F0ED106E0C649096841F4803190
:1021D000C44A116007E0C349096841F4A021C14A1B
:1021E000116000E000BF00BF704710B5014600223B
:1021F000002300204A11012A02D1BA4C236806E0CC
:10220000022A02D1B74C236A01E0B64C636A01F09E
:102210001F02012494401C400CB1012000E000206A
:1022200010BD38B5002000900024002500BF3120EB
:10223000FFF7DBFF05460098401C00900098B0F5C2
:10224000A06F01D0002DF2D03120FFF7CEFF08B1F2
:10225000012400E00024204638BD01460020A14AA8
:10226000106820F0F80040EAC10010607047A049F3
:1022700008607047024600209A4B586820F47C1092
:1022800042EA01031843974B586070479849086623
:10229000704701460020934A506820F0030008432D
:1022A000506070478F48406800F00C00704701464E
:1022B00000208C4A506820F0F000084350607047BE
:1022C00001460020874A506820F4E06008435060CF
:1022D000704701460020834A506820F4605040EA6D
:1022E000C1005060704729B17E4A527A02437D4B4B
:1022F0005A7204E07B4A527A82437A4B5A72704790
:102300007B49D8310860704701460020754A506803
:1023100020F440400843506070470021714A203249
:102320001170704A82F82010012802D004280AD1C6
:1023300004E001216B4A2032117005E00521694A51
:102340002032117000E000BF00BF7047694908608B
:1023500070476449096A0143624A116270476549DE
:1023600044390860704730B5002100220024002362
:102370005C4D6D6805F00C0121B1042905D00829D8
:1023800023D105E05C4D056022E05B4D05601FE058
:10239000544D6D6805F47012524D6D6805F480342B
:1023A000022505EB92421CB9544D554305600BE0E4
:1023B0004C4D6D6805F400351DB1504D5543056019
:1023C00002E04D4D5543056002E04B4D056000BFF6
:1023D00000BF444D6D6805F0F0010909484D6B5C84
:1023E0000568DD4045603F4D6D6805F4E061090A10
:1023F000434D6B5C4568DD4085603A4D6D6805F482
:102400006051C90A3E4D6B5C4568DD40C560354D85
:102410006D6805F44041890B3A4D6B5CC568B5FBAE
:10242000F3F5056130BD29B12E4A526902432D4BA7
:102430005A6104E02B4A526982432A4B5A61704721
:1024400029B1284A92690243264B9A6104E0254A41
:1024500092698243234B9A61704729B1214AD2691C
:102460000243204BDA6104E01E4AD26982431D4BCD
:10247000DA61704729B11B4AD2680243194BDA600E
:1024800004E0184AD2688243164BDA60704729B1DB
:10249000144A12690243134B1A6104E0114A12698B
:1024A0008243104B1A6170471249403908607047E7
:1024B0000F49C86470470B49C87170470948406AA2
:1024C00040F0807007494862704701460020054A85
:1024D00092680A400AB1012000E0002070470149DB
:1024E00088727047001002400000FFF8FFFFF6FE00
:1024F000000042428004424200127A0000093D007E
:10250000560000206600002010B50446FB488442B7
:1025100009D101218803FFF7ADFF00214FF480406E
:10252000FFF7A8FF32E0F648844209D101214804B0
:10253000FFF7ADFF00214FF40030FFF7A8FF25E0C3
:10254000F048844209D101218804FFF7A0FF00214F
:102550004FF48020FFF79BFF18E0EB48844209D13D
:102560000121C804FFF793FF00214FF40020FFF77B
:102570008EFF0BE0E548844208D101210805FFF7F2
:1025800086FF00214FF48010FFF781FF10BD2DE979
:10259000F04786B005460E460024A24600BFA1467D
:1025A0000027B08900B100BF2F462C8A4CF6FF707F
:1025B0000440F08804432C82AC894EF6F3100440AA
:1025C000B08831890843718908430443AC81AC8ADF
:1025D0004FF6FF400440B0890443AC8201A8FFF7E6
:1025E000C2FEC648874202D1DDF810A001E0DDF846
:1025F0000CA0A88900F4004040B10AEBCA0000EB2F
:102600000A1031684900B0FBF1F807E00AEBCA0094
:1026100000EB0A1031688900B0FBF1F86420B8FBC8
:10262000F0F004012009642101FB1089A88900F45D
:10263000004040B1322000EBC900B0FBF1F000F0E7
:102640000700044308E0322000EB09106421B0FBCE
:10265000F1F000F00F0004432C8106B0BDE8F087D4
:102660004FF41651016000218180C18001810C214D
:10267000418100218181704710B502460020108AF7
:102680004FF2FF0318400B884C8823438C88234368
:10269000CC8823431843108210BD00210180418063
:1026A0008180C180704721B1828942F400528281C9
:1026B00004E082894DF6FF731A4082817047F0B5BD
:1026C0000346002400260025002040F66A17B94280
:1026D00000D100BF1846C1F3421401F01F060127C4
:1026E00007FA06F5012C01D10C3004E0022C01D1CF
:1026F000103000E014301AB107682F43076002E081
:102700000768AF430760F0BD1AB1838A0B43838229
:1027100002E0838A8B4383827047028A4FF6F0730C
:102720001A400282028A0A430282704782894FF26B
:10273000FF731A40828182890A438281704721B1E6
:10274000828942F00202828104E082894FF6FD73A1
:102750001A4082817047028A4FF6DF731A40028264
:10276000028A0A430282704721B1028A42F48042FF
:10277000028204E0028A4BF6FF731A40028270471D
:10278000C1F308028280704701468888C0F30800C0
:102790007047818941F0010181817047028BD2B27B
:1027A0000283028B42EA012202837047028B02F409
:1027B0007F420283028B0A430283704721B1828ADF
:1027C00042F02002828204E0828A4FF6DF731A40D0
:1027D0008282704721B1828A42F01002828204E034
:1027E000828A4FF6EF731A408282704721B1828A43
:1027F00042F00802828204E0828A4FF6F7731A40A0
:102800008282704721B1828942F40042828103E0D2
:102810008289C2F30E028281704721B1828A42F41A
:102820000062828204E0828A4FF2FF731A40828241
:102830007047828A4FF6FB731A408282828A0A436B
:102840008282704721B1828A42F00202828204E0D1
:10285000828A4FF6FD731A4082827047024600203A
:10286000B1F5007F00D100BF13880B400BB10120F0
:1028700000E00020704701F40072B2F5007F00D143
:1028800000BFCA430280704770B50246002400238F
:102890000025002040F66A16B14200D100BFC1F306
:1028A000421501F01F03012606FA03F3012D02D1A0
:1028B0009689334006E0022D02D1168A334001E0AA
:1028C000968A33400C12012606FA04F41688344026
:1028D00013B10CB1012000E0002070BD10B5002242
:1028E000002340F66A14A14200D100BF0A1201245D
:1028F0009440A3B2DC43048010BD000000380140C6
:102900000044004000480040004C0040005000409F
:1029100010B50446FE48844208D10121C014FFF7D7
:10292000A9FD0021E014FFF7A5FDC4E0B4F1804F3C
:1029300008D101210846FFF7AAFD00210120FFF779
:10294000A6FDB8E0F348844208D101210220FFF738
:102950009EFD00210220FFF79AFDACE0EE48844284
:1029600008D101210420FFF792FD00210420FFF788
:102970008EFDA0E0E948844208D101210820FFF73C
:1029800086FD00210820FFF782FD94E0E4488442A0
:1029900008D101211020FFF77AFD00211020FFF758
:1029A00076FD88E0DF48844208D101212020FFF72E
:1029B0006EFD00212020FFF76AFD7CE0DA488442AA
:1029C00008D101214014FFF755FD00216014FFF7E5
:1029D00051FD70E0D548844209D10121C804FFF7B8
:1029E00049FD00214FF40020FFF744FD63E0D0488B
:1029F000844209D101210805FFF73CFD00214FF475
:102A00008010FFF737FD56E0CA48844209D1012102
:102A10004805FFF72FFD00214FF40010FFF72AFDB6
:102A200049E0C548844208D101214020FFF72FFD2D
:102A300000214020FFF72BFD3DE0C048844208D133
:102A400001218020FFF723FD00218020FFF71FFDDB
:102A500031E0BB48844208D101218015FFF717FD02
:102A60000021A015FFF713FD25E0B648844209D1E7
:102A700001210804FFF7FEFC00214FF48030FFF72E
:102A8000F9FC18E0B048844209D101214804FFF75D
:102A9000F1FC00214FF40030FFF7ECFC0BE0AB48F9
:102AA000844208D101218804FFF7E4FC00214FF49F
:102AB0008020FFF7DFFC10BD00220288944B984273
:102AC0000ED0994B98420BD0B0F1804F08D0914B6B
:102AD000984205D0904B984202D0904B984204D136
:102AE0004FF68F731A404B881A438D4B984207D08C
:102AF0008C4B984204D04FF6FF431A40CB881A43C0
:102B000002808B8883850B880385814B98420BD08C
:102B1000854B984208D08B4B984205D08A4B9842FF
:102B200002D08A4B984201D10B7A0386012383821B
:102B3000704770B5002400220023058C4FF6FE7606
:102B400035400584028C8388048B4FF68F752C40AA
:102B5000B51E2C400D882C43751E2A400D892A4332
:102B60004D882A436A4DA8420BD06F4DA84208D029
:102B7000744DA84205D0744DA84202D0734DA842AE
:102B800013D14FF6F7752A404D892A434FF6FB754E
:102B90002A408D882A434FF6FF652B404FF6FF559C
:102BA0002B408D892B43CD892B4383800483CD8893
:102BB0008586028470BD70B5002400220023058C38
:102BC0004FF6EF7635400584028C8388048B48F6F7
:102BD000FF752C404FF6FF452C400D884FF6FF76D1
:102BE00006EA05252C434FF6DF752A400D8906EAD3
:102BF00005152A434D8806EA05152A43444DA84287
:102C000002D0494DA8421DD14FF67F752A404D890B
:102C10004FF6FF7606EA05152A434FF6BF752A40A0
:102C20008D8806EA05152A434FF6FF352B404FF2F3
:102C3000FF752B408D8906EA85052B43CD8906EA71
:102C400085052B4383800483CD880587028470BD6E
:102C500070B5002400220023058C4FF6FF66354036
:102C60000584028C8388848B4FF68F752C404FF639
:102C7000FC752C400D882C434FF6FF552A400D89DA
:102C80004FF6FF7606EA05252A434D8806EA052514
:102C90002A431F4DA84202D0234DA8421DD14FF216
:102CA000FF752A404D894FF6FF7606EA05252A432F
:102CB0004FF6FF352A408D8806EA05252A434EF651
:102CC000FF752B404DF6FF752B408D8906EA0515E3
:102CD0002B43CD8906EA05152B4383808483CD8859
:102CE0008587028470BD70B5002200230024058C06
:102CF0004EF6FF7635400584038C8488828B48F637
:102D0000FF752A404FF6FF452A400D8820E000005D
:102D1000002C01400004004000080040000C00406E
:102D2000001000400014004000340140004C0140FD
:102D3000005001400054014000180040001C0040B9
:102D40000020004000400140004401400048014094
:102D50004FF6FF7606EA05252A434DF6FF752B4010
:102D60000D8906EA05352B434D8806EA05352B43C8
:102D7000FA4DA84202D0FA4DA84208D14BF6FF7591
:102D80002C408D894FF6FF7606EA85152C4384800A
:102D90008283CD88A0F84050038470BD828B4FF2AF
:102DA000FF331A408283828B4FF6FF7303EA0123BD
:102DB0001A4382837047F0B50C4615460022002165
:102DC0000026078C4EF6FF7C07EA0C070784828BEF
:102DD000018C4FF6FF7707EA043640F6FF473A408A
:102DE0004FF6FF7707EA05273A434FF6FF7707EAE2
:102DF00003373A43D94FB8420ED0D94FB8420BD01F
:102E0000B0F1804F08D0D74FB84205D0D64FB84266
:102E100002D0D64FB84206D14DF6FF77394046F47E
:102E20008057394305E047F6FF57394044F480574F
:102E3000394382830184F0BD828B4FF6F3731A40CD
:102E40008283828B0A4382837047F0B50C46154615
:102E5000002200210026078C4FF6FF6C07EA0C07C2
:102E60000784828B018C4FF6FF7707EA04264FF622
:102E70000C773A404FF6FF7707EA03172F433A43A0
:102E8000B64FB8420ED0B64FB8420BD0B0F1804F1B
:102E900008D0B44FB84205D0B34FB84202D0B34FB8
:102EA000B84206D14FF6FF57394046F48077394390
:102EB00005E04FF2FF57394044F48077394382836D
:102EC0000184F0BD028B4FF2FF331A400283028B64
:102ED0004FF6FF7303EA01231A4302837047F0B5EC
:102EE0000C461546002200210026078C4FF6EF7C89
:102EF00007EA0C070784028B018C4FF6FF7707EA7D
:102F0000041640F6FF473A404FF6FF7707EA0337CB
:102F10003A434FF6FF7707EA05273A438F4FB84207
:102F20000ED08F4FB8420BD0B0F1804F08D08D4FEC
:102F3000B84205D08C4FB84202D08C4FB84206D16F
:102F40004FF6DF77394046F01007394305E04FF67A
:102F50005F77394044F01007394302830184F0BDA4
:102F6000028B4FF6F3731A400283028B0A430283EB
:102F70007047F0B50C46154600220021068C4FF62E
:102F8000FE773E400684028B018C4FF60C76324071
:102F90007E1C06EA03162E433243704EB0420ED01A
:102FA0006F4EB0420BD0B0F1804F08D06D4EB042A2
:102FB00005D06D4EB04202D06C4EB04206D14FF6F5
:102FC000FD76314044F00106314305E04FF6F576D9
:102FD000314044F00106314302830184F0BD70B5F5
:102FE00005460C465D4885420ED05D4885420BD0B3
:102FF000B5F1804F08D05B48854205D05A488542DC
:1030000002D05A48854200D100E000BF208850B964
:103010002389A28861882846FFF7ABFFE18828460C
:10302000FFF79EFF25E0208804280AD12389A28883
:1030300061882846FFF753FFE1882846FFF742FFE3
:1030400017E0208808280AD12389A28861882846A9
:10305000FFF7FBFEE1882846FFF7EEFE09E0238933
:10306000A28861882846FFF7A6FEE1882846FFF778
:1030700095FE70BD2DE9F04105460C46002601275E
:10308000608808B9022600E00026A088012801D146
:10309000022700E001272088A0B92389A28861883F
:1030A0002846FFF766FFE1882846FFF759FF238986
:1030B0003A4631462846FFF712FFE1882846FFF7D7
:1030C00001FF13E02389A28861882846FFF707FFE4
:1030D000E1882846FFF7F6FE23893A46314628461E
:1030E000FFF747FFE1882846FFF73AFFBDE8F08188
:1030F0000A884B881A438B881A43CB881A430B895A
:103100001A434B891A438B891A43A0F8442070470D
:103110004FF6FF71818000210180C18041800172E2
:1031200070470021018041808180C18001814181FF
:103130008181C1817047002101804180012181800E
:103140000021C18001817047002101804180818080
:10315000C18001814181818170470000002C0140C4
:10316000003401400004004000080040000C004012
:1031700021B1028842F00102028004E002884FF689
:10318000FE731A400280704731B1B0F8442042F417
:103190000042A0F8442005E0B0F84420C2F30E023B
:1031A000A0F8442070471AB183890B43838102E061
:1031B00083898B43838170478182704741EA020390
:1031C000A0F8483070471AB183890B43838102E02D
:1031D00083898B438381704701894FF6F8721140D0
:1031E000018170470A46002101894FF68F7319400B
:1031F00011430181704730B504460D4629462046EB
:10320000FFF7F0FF208940F00700208130BD2DE955
:10321000F04104460D4616461F46602D06D13B463A
:10322000012231462046FFF75AFE05E03B460122C7
:1032300031462046FFF79DFE29462046FFF7D2FF84
:10324000208940F007002081BDE8F08130B50C46B0
:1032500000210189C9B24FF6FF7505EA0325154320
:1032600025432943018130BD2DE9F04105460E4635
:1032700017469846002443463A4631462846FFF70B
:10328000E5FF2C894FF6F870044044F007044FF630
:103290008F70044044F070042C81BDE8F081F0B5DB
:1032A00004460D4616461F463B46324629462046F2
:1032B000FFF7CCFF208940F480402081F0BD0185DC
:1032C000828270470A46002101884FF68F731940A9
:1032D000114301807047F0B50C4615461E4600218B
:1032E000002200230189028B038C4FF6F8773940C6
:1032F00021434FF6FC473A4040F201173A434FF65C
:10330000DD773B404FF6FF7707EA06172F433B4335
:10331000018102830384F0BD0A460021018B4FF630
:103320008F7319401143018370470A460021018BB6
:1033300048F6FF7319404FF6FF7303EA022319435F
:10334000018370470A460021818B4FF68F73194025
:103350001143818370470A460021818B48F6FF7331
:1033600019404FF6FF7303EA022319438183704724
:1033700021B1028842F08002028004E002884FF608
:103380007F731A400280704721B1828842F00402A4
:10339000828004E082884FF6FB731A408280704777
:1033A00021B1828842F00802828004E082884FF6D0
:1033B000F7731A408280704721B1828842F001027F
:1033C000828004E082884FF6FE731A408280704744
:1033D0000A460021018B4FF6F77319401143018310
:1033E00070470A460021018B4FF2FF7319404FF6D8
:1033F000FF7303EA02231943018370470A46002141
:10340000818B4FF6F77319401143818370470A4649
:103410000021818B4FF2FF7319404FF6FF7303EACF
:1034200002231943818370470A460021018B4FF61E
:10343000FB7319401143018370470A460021018B39
:103440004FF6FF3319404FF6FF7303EA0223194387
:10345000018370470A460021818B4FF6FB731940A8
:103460001143818370470A460021818B4FF6FF3359
:1034700019404FF6FF7303EA022319438183704713
:103480000A460021018B4FF67F73194011430183D7
:1034900070470A460021018BC1F30E014FF6FF73FE
:1034A00003EA02231943018370470A460021818BF6
:1034B0004FF67F7319401143818370470A460021FC
:1034C000818BC1F30E014FF6FF7303EA0223194308
:1034D000818370470A460021018C4FF6FD73194025
:1034E0001143018470470A460021018C4FF6F7739F
:1034F00019401143018470470A460021018C4FF6A0
:10350000DF7319404FF6FF7303EA02131943018476
:1035100070470A460021018C4FF67F7319404FF621
:10352000FF7303EA02131943018470470A4600211E
:10353000018C4FF6FF5319404FF6FF7303EA022345
:103540001943018470470A460021018C4FF2FF7332
:1035500019404FF6FF7303EA0223194301847047B1
:103560000A460021018C4DF6FF7319404FF6FF7398
:1035700003EA023319430184704730B50023012464
:103580008C40A3B2048C9C430484048C02FA01F5A1
:10359000ADB22C43048430BD30B5002304248C40EC
:1035A000A3B2048C9C430484048C02FA01F5ADB2EE
:1035B0002C43048430BD70B5034600200024184617
:1035C000183001258D40ACB21D8CA5431D8409B176
:1035D000082909D100EB6100056825F07005056038
:1035E0000568154305600EE00D1FC5F34E05284420
:1035F000056825F4E045056005684FF6FF7606EAA4
:1036000002263543056070BD21B1028842F00202F6
:10361000028004E002884FF6FD731A400280704772
:1036200021B1028842F00402028004E002884FF6D1
:10363000FB731A400280704721B1828842F08002F9
:10364000828004E082884FF67F731A408280704740
:1036500002884FF6F7731A40028002880A430280FC
:10366000704782884FF68F731A40828082880A439F
:103670008280704702894FF6F8731A4002810289EE
:103680000A430281704702894FF67F731A40028114
:1036900002890A430281704781847047818570479F
:1036A000818670470187704781877047A0F8401076
:1036B000704702884FF6FF431A40028002880A438F
:1036C000028070470146888E70470146088F704718
:1036D0000146888F70470146B1F8400070470146A7
:1036E000888C70470146088D704702460020138A77
:1036F0000B400BB1012000E000207047CA4302825A
:10370000704730B50246002000230024158A05EAE0
:103710000103958905EA010413B10CB1012000E011
:10372000002030BDCA4302827047000010B5044635
:10373000FA48844208D101214015FEF79BFE002182
:103740006015FEF797FE17E0F548844208D1012185
:103750000015FEF78FFE00212015FEF78BFE0BE013
:10376000F048844208D10121C803FEF783FE0021FE
:103770004FF40040FEF77EFE10BD30B5024600203B
:1037800000235068E84C20400D790C6844EA052479
:10379000204350609068E54C2040D1E902542C430E
:1037A0004D7944EA450420439060D06A20F47000CB
:1037B0000C7C641EE4B2234340EA0350D06230BD67
:1037C00000210160017141718160C16001210174BA
:1037D000704721B1826842F00102826003E0826892
:1037E00022F001028260704721B1826842F4807247
:1037F000826003E0826822F480728260704710B5B4
:103800000023CBB21AB144681C43446002E0446810
:103810009C43446010BD816841F00801816070479D
:10382000014600208A6802F008020AB1012000E087
:1038300000207047816841F00401816070470146B3
:1038400000208A6802F004020AB1012000E0002092
:10385000704721B1826842F4A002826003E082686E
:1038600022F4A00282607047014600208A6802F4B8
:1038700080020AB1012000E00020704710B50A461E
:1038800000210023416821F46041531E41EA433185
:10389000416010BD21B1426842F40062426003E021
:1038A000426822F4006242607047F0B504460D465B
:1038B00000200021092D11DDE068A5F10A0606EBC4
:1038C0004607072606FA07F18843A5F10A0606EB24
:1038D000460603FA06F10843E0600CE0206905EBB8
:1038E0004507072606FA07F1884305EB450603FA64
:1038F00006F108432061072A0FDA606B561E06EBBB
:1039000086071F2606FA07F18843561E06EB860631
:1039100005FA06F10843606322E00D2A0FDA206BF6
:10392000D61F06EB86071F2606FA07F18843D61F27
:1039300006EB860605FA06F10843206310E0E06A0C
:10394000A2F10D0606EB86071F2606FA07F188434B
:10395000A2F10D0606EB860605FA06F10843E062C1
:10396000F0BD21B1826842F48012826003E0826877
:1039700022F48012826070470146C86C80B27047A2
:1039800066484C300068704721B1426842F480625A
:10399000426003E0426822F480624260704721B1D5
:1039A000426842F48052426003E0426822F480524E
:1039B000426070470A460021816821F4E0411143CA
:1039C0008160704721B1826842F40042826003E066
:1039D000826822F400428260704721B1826842F41A
:1039E0000212826003E0826822F402128260704751
:1039F000014600208A6802F400120AB1012000E0AA
:103A000000207047F0B5044615460020002200262D
:103A1000092911DDE068A1F10A0707EB470C072728
:103A200007FA0CF29043A1F10A0707EB470703FAE4
:103A300007F21043E0600CE0206901EB410C07271E
:103A400007FA0CF2904301EB410703FA07F2104327
:103A50002061A06BC0F30156EF1C06F1010CA7EB2F
:103A60000C0707EB870C1F2707FA0CF29043EF1C9B
:103A700006F1010CA7EB0C0707EB870701FA07F229
:103A80001043A063F0BD10B50A4600210023816BEE
:103A900021F44011531E41EA0351816310BD08B562
:103AA000002300930090009B0B440093009B1A603E
:103AB00008BD08B5024600200090009201F12800E0
:103AC000009B184400900098006880B208BD0A4628
:103AD00000214168164B1940114341607047416213
:103AE000826270470A460021416821F01F0111439C
:103AF0004160704740B109490831096841F400014B
:103B0000064A0832116007E004490831096821F4C7
:103B10000001024A08321160704700000024014091
:103B200000280140003C0140FFFEF0FFFDF7F1FFDF
:103B3000FFFD3FFF0246002013680B400BB1012040
:103B400000E000207047CA430260704770B502462B
:103B50000020002300240B125568CEB205EA0604AB
:103B600015681D4015B10CB1012000E0002070BDAA
:103B700000220A12D34303607047000010B50446C8
:103B8000BE48844208D101218014FEF773FC002155
:103B9000A014FEF76FFC16E0B948844208D1012159
:103BA0000014FEF774FC00212014FEF770FC0AE0FC
:103BB000B448844207D10121C013FEF768FC0021FC
:103BC000E013FEF764FC10BD10B50022028802F479
:103BD00041520B884C8823438C882343CC88234351
:103BE0000C8923434C8923438C892343CC89234369
:103BF0001A430280838B4FF2FF74234083830B8A26
:103C0000038210BD2DE9F04F85B005460C464FF0FC
:103C1000000902274FF000084FF0010B0026B246C2
:103C2000A88B4FF240010840A88302202884B5F8F1
:103C30001C90A068022801D100BF38E0A08810B90C
:103C40004FF0010B01E04FF0020B8D48854200D18F
:103C500000E000BF6846FEF786FBDDF800A0E088C4
:103C6000B0F5007F0AD14FEA1A2000EB8000400037
:103C7000A168B0FBF1F0401D86B20BE04FEA4B109B
:103C8000BAFBF0F000EB80004000A168B0FBF1F05F
:103C9000401D86B20A20B6FBF0F606F00108A6EB3E
:103CA0000800C0F34F074FF6FF7000EA0828022F04
:103CB00001DBFF2F02DD02274FF00008E08840EA19
:103CC000080038432884A088A189084361880843F4
:103CD0002188084340F4006040EA0909A5F81C90D7
:103CE00005B0BDE8F08F0021018041808180C18056
:103CF000018141818181C1810721018270470021B9
:103D0000018041808180C180022181600021818108
:103D1000704721B1028842F04002028004E002882C
:103D20004FF6BF731A400280704721B1828B42F474
:103D30008062828304E0828B4FF6FF331A408283D5
:103D4000704730B5002400230C110125A540ABB20B
:103D50001AB185881D43858002E085889D43858052
:103D600030BD1AB183880B43838002E083888B4384
:103D700083807047818170470146888970474FF67C
:103D8000FF62914204D0028842F48072028004E013
:103D900002884FF6FF631A400280704721B1828883
:103DA00042F00402828004E082884FF6FB731A40DE
:103DB0008280704702884FF2FF731A4002800288A7
:103DC0000A4302807047018841F4805101807047A6
:103DD00021B1028842F40052028004E002884DF6CC
:103DE000FF731A400280704702460020012901D06B
:103DF000108B00E0908A70470146088A7047B1F541
:103E0000804F04D1028842F48042028004E002889C
:103E10004BF6FF731A400280704702460020138958
:103E20000B400BB1012000E000207047CA43028123
:103E30007047F0B50246002000240023002501F061
:103E40000F070126BE40B4B20B1101269E40B3B24B
:103E5000968806EA03051689264016B10DB10120A1
:103E600000E00020F0BD10B5002201F00F04012396
:103E7000A3409AB2D343038110BD0000003001403B
:103E800000380040003C004010B501214807FEF713
:103E9000FEFA00214FF00050FEF7F9FA10BD30B5E0
:103EA000002200235A4C226840F6FE748440A2434C
:103EB000D1E900452C438D682C43CD6844EA0503C5
:103EC00003FA00F42243524C226030BD002101600D
:103ED00041608160C160704739B14D4A1268012369
:103EE00083401A434A4B1A6006E0494A126801238C
:103EF00083409A43464B1A60704741B1444A126866
:103F00004FF4805383401A43414B1A6007E0404A04
:103F100012684FF4805383409A433D4B1A607047B8
:103F200010B551B13A4A121D126804090123A34089
:103F30001A43374B1B1D1A6009E0354A121D1268DF
:103F400004090123A3409A43314B1B1D1A6010BD85
:103F500040B12F49091D096841F003012C4A121D87
:103F6000116007E02A49091D096821F00301284A68
:103F7000121D1160704710B53AB1254B1B6801FA4C
:103F800000F42343224C236006E0214B1B6801FA16
:103F900000F4A3431E4C236010BD08B5002200921C
:103FA0001B4A009200F10802009B1A440092009AFA
:103FB000116008BD08B500220092154A009200F178
:103FC0001402009B1A440092009A116008BD30B59B
:103FD00000240023082802D142EA012401E042EA39
:103FE00001440B4B00F120052B441C6030BD08B58B
:103FF000014600200090064800902C2000EB910024
:10400000009A104400900098006880B208BD00003B
:104010000074004010B58CB004461E230BAA03A9FF
:10402000204600F0ABFE0090009810B101200CB0CB
:1040300010BD9DF82C00044400200B900EE0404879
:104040009DF82C2050F8221003A800F0FFFD00B9C5
:1040500008E09DF82C00401CC0B20B909DF82C008D
:104060000728ECD300BF9DF82C00072863D2DFE8B7
:1040700000F004053C5E6564630000BF31A001F000
:104080007BF831A001F078F83FA001F075F84EA060
:1040900001F072F85CA001F06FF86BA001F06CF811
:1040A00079A001F069F886A001F066F88BA001F014
:1040B00063F890A001F060F894A001F05DF899A079
:1040C00001F05AF89EA001F057F8A4A001F054F8AE
:1040D000B0A001F051F8BDA001F04EF8C8A001F069
:1040E0004BF8D4A001F048F89AE216A001F044F889
:1040F000E0A001F041F800200B900EE0ED480068D0
:104100009DF82C2000EBC2004168EBA001F034F8D0
:104110009DF82C00401CC0B20B90E648007D9DF835
:104120002C108842EADC07A001F026F878E205A00E
:1041300001F022F8C4E171E245E219E2ECE100008D
:104140006C0000200D0A00002D2D2D2D2D2D2D2D64
:104150002D2D2D2D2D2D2D2D2D2D2D2D2D2D2D2D8F
:1041600055534D4152542056332E312D2D2D2D2D8A
:104170002D2D2D2D2D2D2D2D2D2D2D2D2D2D2D2D6F
:104180002D2D2D200D0A00002020202055534D41BB
:104190005254CAC7D3C9414C49454E54454BBFAA96
:1041A000B7A2B5C4D2BBB8F6C1E9C7C9B5C4B4AEED
:1041B000BFDAB5F7CAD4BBA5BDBBD7E9BCFE2CCDD1
:1041C000A8B9FD200D0A0000CBFC2CC4E3BFC9D266
:1041D000D4CDA8B9FDB4AEBFDAD6FACAD6B5F7D3F6
:1041E000C3B3CCD0F2C0EFC3E6B5C4C8CEBACEBA22
:1041F000AFCAFD2CB2A2D6B4D0D02ED2F2B4CB2C02
:10420000C4E3BFC90D0A0000D2D4CBE6D2E2B8FCA9
:10421000B8C4BAAFCAFDB5C4CAE4C8EBB2CECAFDD1
:1042200028D6A7B3D6CAFDD7D62831302F3136BD10
:10423000F8D6C629A1A2D7D6B7FBB4AEA1A2BAAF11
:10424000CAFDC8EB0D0A0000BFDAB5D8D6B7B5C8AD
:10425000D7F7CEAAB2CECAFD292CB5A5B8F6BAAF0B
:10426000CAFDD7EEB6E0D6A7B3D63130B8F6CAE469
:10427000C8EBB2CECAFD2CB2A2D6A7B3D6BAAFCA8B
:10428000FDB7B5200D0A0000BBD8D6B5CFD4CABE45
:104290002ED0C2D4F6B2CECAFDCFD4CABEBDF8D697
:1042A000C6C9E8D6C3B9A6C4DC2CD0C2D4F6BDF8C2
:1042B000D6C6D7AABBBBB9A6C4DC2E0D0A00000027
:1042C000BCBCCAF5D6A7B3D63A7777772E6F7065A0
:1042D0006E6564762E636F6D0D0A000055534D4177
:1042E0005254D3D037B8F6CFB5CDB3C3FCC1EE3AF4
:1042F0000D0A00003F3A202020202020BBF1C8A159
:10430000B0EFD6FAD0C5CFA20D0A000068656C7078
:104310003A202020BBF1C8A1B0EFD6FAD0C5CFA279
:104320000D0A00006C6973743A202020BFC9D3C302
:10433000B5C4BAAFCAFDC1D0B1ED0D0A0A00000084
:1043400069643A2020202020BFC9D3C3BAAFCAFD78
:10435000B5C44944C1D0B1ED0D0A0A006865783A88
:1043600020202020B2CECAFD3136BDF8D6C6CFD42B
:10437000CABE2CBAF3B8FABFD5B8F12BCAFDD7D64E
:10438000BCB4D6B4D0D0BDF8D6C6D7AABBBB0D0A34
:104390000A0000006465633A20202020B2CECAFDE6
:1043A0003130BDF8D6C6CFD4CABE2CBAF3B8FABFE6
:1043B000D5B8F12BCAFDD7D6BCB4D6B4D0D0BDF891
:1043C000D6C6D7AABBBB0D0A0A00000072756E7470
:1043D000696D653A312CBFAAC6F4BAAFCAFDD4CB19
:1043E000D0D0BCC6CAB13B302CB9D8B1D5BAAFCA4F
:1043F000FDD4CBD0D0BCC6CAB13B0D0A0A00000028
:10440000C7EBB0B4D5D5B3CCD0F2B1E0D0B4B8F1ED
:10441000CABDCAE4C8EBBAAFCAFDC3FBBCB0B2CEDA
:10442000CAFDB2A2D2D4BBD8B3B5BCFCBDE1CAF8B8
:104430002E0D0A002D2D2D2D2D2D2D2D2D2D2D2D1B
:104440002D2D2D2D2D2D2D2D2D2D2D2D2D2D414C69
:1044500049454E54454B2D2D2D2D2D2D2D2D2D2DDA
:104460002D2D2D2D2D2D2D2D2D2D2D2D2D2D2D2089
:104470000D0A00002D2D2D2D2D2D2D2D2D2D2D2D09
:104480002D2D2D2D2D2D2D2D2D2D2D2D2DBAAFCAB0
:10449000FDC7E5B5A52D2D2D2D2D2D2D2D2D2D2D2A
:1044A0002D2D2D2D2D2D2D2D2D2D2D2D2D2D2D2D3C
:1044B000200D0A00A800002025730D0A000000004E
:1044C000EFA000F059FE00200B901AE0FC490968AB
:1044D0009DF82C2001EBC20101AB02AA486803A998
:1044E00000F072FCF64800689DF82C1050F831205E
:1044F00003A9F4A000F040FE9DF82C00401CC0B2BF
:104500000B90EF48007D9DF82C108842DEDCAFF266
:10451000CC3000F031FE83E0AFF2D83000F02CFE5A
:104520000BAA03A9204600F02BFD9DF82C00C8B96A
:10453000694603A800F0BDFB0B909DF82C0020B944
:10454000E5A0009900F018FE0EE09DF82C0004286C
:1045500001D002206BE5E3A000F00EFE0120D84957
:10456000C87501E0022062E5DDA000F005FE57E01D
:10457000DBA000F001FE0BAA03A9204600F000FD1D
:104580009DF82C00C8B9694603A800F092FB0B9077
:104590009DF82C0020B9D8A0009900F0EDFD0EE0A8
:1045A0009DF82C00042801D0022040E5D5A000F0A1
:1045B000E3FD0020C249C87501E0022037E5C8A02C
:1045C00000F0DAFD2CE0C6A000F0D6FD0BAA03A98E
:1045D000204600F0D5FC9DF82C00C8B9694603A818
:1045E00000F067FB0B909DF82C0078B9B449009857
:1045F00081F8EC00084690F8EC0018B1C6A000F075
:10460000BBFD07E0CBA000F0B7FD03E002200EE504
:1046100002200CE5B2A000F0AFFD01E0012006E5AC
:1046200000BF002003E510B50121C948FFF766F877
:104630004FF6FF71C648FFF731F80021C448FFF775
:104640002BF800209E49C1F8F00010BD10B50121E3
:10465000BF48FFF74AF8012808D19948D0F8F00080
:104660004FF6FF7108449649C1F8F000B848FFF7CB
:1046700036F89349D1F8F01008449149C1F8F00098
:104680000846D0F8F00010BD10B50121B048FFF782
:1046900038F801280AD18A49086980470021AC48C6
:1046A000FEF7FAFF6421AA48FEF7F8FF0121A848A7
:1046B000FFF738F810BD7FB505460C4601210420F0
:1046C000FDF7CBFEADF80850ADF804400020ADF882
:1046D0000A00ADF8060001A99D48FEF7EDF9012298
:1046E00041219B48FEF75FFD1E208DF8000003204E
:1046F0008DF801008DF8020001208DF80300684656
:10470000FDF719FB01219248FEF732FD7FBD10B580
:10471000044604EBC40000EB04100122C2EB80004D
:1047200081B24FF47A70FFF7C6FF01206449C87563
:1047300010BD30B595B0054613AB12AA09A928469D
:1047400000F042FB044614B1204615B030BD0020F5
:10475000149026E05A4909689DF8502001EBC201E7
:1047600013AB11AA486801A900F02EFB04460CB156
:104770002046EAE709A901A800F068FA60B99DF8A7
:1047800044009DF84810884201DD0220DDE79DF8D5
:1047900050004B4988750AE09DF85000401CC0B29B
:1047A00014904748007D9DF850108842D2DC00BF2D
:1047B0004348007D9DF85010884201D10420C4E791
:1047C00014A9284600F04DFC04460CB12046BCE775
:1047D0009DF850003A4948750020B6E72DE9F041B0
:1047E0009AB03748847D007DA04202DC1AB0BDE853
:1047F000F0813349096801EBC40106AB07AA486898
:1048000008A900F0E1FA08A952A000F0B5FC0026C2
:10481000BAE02B48008B0121B1400840D8B12221D9
:104820004EA000F0A9FC304600F00EFC24492431D3
:10483000471839464AA000F09FFC222147A000F00B
:104840009BFC304600F000FC1D492431084410A9AF
:1048500041F826008EE0304600F0F6FB184924317E
:10486000085810A941F826001548C07D30B910A895
:1048700050F826103BA000F07FFC7BE074E00000C5
:104880002D2D2D2D2D2D2D2D2D2D2D2D2D2D2D2D58
:104890002D2D2D2D2D2D2D2D2DBAAFCAFD204944A6
:1048A000202D2D2D2D2D2D2D2D2D2D2D2D2D2D2D45
:1048B0002D2D2D2D2D2D2D2D2D2D2D2D200D0A00A5
:1048C000A800002025732069642069733A0D0A301E
:1048D00058253038580D0A004845583A3058255860
:1048E0000D0A00003136BDF8D6C6B2CECAFDCFD40F
:1048F000CABE210D0A0000004445433A256C750DDF
:104900000A0000003130BDF8D6C6B2CECAFDCFD401
:10491000CABE210D0A00000052756E2054696D65F3
:104920002043616C63756C6174696F6E204F4E0D2E
:104930000A00000052756E2054696D652043616C59
:1049400063756C6174696F6E204F46460D0A0000F6
:10495000000800400D0A25732800000025630000B0
:1049600025730000256C750010A850F8261095A03E
:1049700000F002FC9DF81C00401EB04202D093A043
:1049800000F0FAFB701CC6B29DF81C008642FFF6D0
:1049900040AF8FA000F0F0FBFFF745FE8D48407D53
:1049A0000B280DD2DFE800F0060D151E27323F4E12
:1049B0005F7287008749096851F8340080470546CF
:1049C00090E0844A126852F83410109888470546DF
:1049D00088E0804B1B6853F83420DDE910019047D4
:1049E00005467FE07B4F3F6857F8343010A807C872
:1049F0009847054676E0DFF8DCC1DCF800C05CF8DB
:104A0000347010A80FC8B84705466BE01498DFF85B
:104A1000C4C10090DCF800C05CF8347010A80FC866
:104A2000B84705465EE0DDE91401DFF8A8C1CDE92D
:104A30000001DCF800C05CF8347010A80FC8B8475B
:104A400005464FE0DDE914121698DFF888C1CDE97C
:104A500000120290DCF800C05CF8347010A80FC897
:104A6000B84705463EE0DDE91423DDE91610DFF81E
:104A700064C1CDE90023CDE90210DCF800C05CF888
:104A8000347010A80FC8B84705462BE0DDE91523A0
:104A9000DDE91710CDE90123CDE903101498DFF803
:104AA00034C10090DCF800C05CF8347010A80FC866
:104AB000B847054616E0DDE91623DDE91810CDE913
:104AC0000223CDE90410DDE91401DFF808C1CDE9C6
:104AD0000001DCF800C05CF8347010A80FC8B847BB
:104AE000054600BF00BFFFF7B1FD9DF81800012883
:104AF0000CD13848C07D20B9294637A000F03CFBD6
:104B000007E0294636A000F037FB02E033A000F0B2
:104B100033FB304890F8EC0088B12E48D0F8F00014
:104B20000A21B0FBF1F201FB12072A48D0F8F0008D
:104B3000B0FBF1F83A4641462CA000F01DFB00BF47
:104B400054E670B53148008800F40040002833D0A6
:104B50002E48057800202E4948551E4881682C486B
:104B6000884704461CB91B49C868804721E028488B
:104B7000FFF750FA0546012D00D02C46CCB1012C90
:104B800006D0022C08D0032C0AD0042C10D10BE044
:104B900020A000F0F1FA0BE021A000F0EDFA07E010
:104BA00022A000F0E9FA03E023A000F0E5FA00BF3C
:104BB00000BF00201549088070BD01460868704795
:104BC0000160704730582558000000002C0000009C
:104BD00029000000A80000203D256C753B0D0A004F
:104BE0003D305825583B0D0A0000000046756E63A5
:104BF00074696F6E2052756E2054696D653A256434
:104C00002E2531646D730D0A000000004A0000205B
:104C100044000020BAAFCAFDB4EDCEF3210D0A0066
:104C2000B2CECAFDB4EDCEF3210D0A00B2CECAFD5C
:104C3000CCABB6E0210D0A00CEB4D5D2B5BDC6A529
:104C4000C5E4B5C4BAAFCAFD210D0A0002460AE0A8
:104C500010780B78984201D001207047107800B985
:104C600002E0521C491CF3E700BF0020F5E706E014
:104C700002780A70027802B902E0401C491CF7E78A
:104C800000BF70470146002005E00A7802B903E042
:104C9000421CD0B2491CF8E700BF704710B502466D
:104CA000012000E050430B1EA1F10104E1B2F9D153
:104CB00010BD2DE9F04307460E4600254FF00A08C7
:104CC0003C46002030601FE02078392802DC207844
:104CD00030280ADA2078462802DC2078412804DAD5
:104CE0002078582809D1012D07D12078412801DBEF
:104CF0004FF01008681CC5B205E0207800B904E048
:104D00000120BDE8F083641CDEE700BF3C46B8F13B
:104D1000100F0FD1032D01DA0220F2E7207830289E
:104D200006D16078582803D1A41CA81EC5B204E09F
:104D30000320E6E70DB90420E3E71BE00DB1681E90
:104D4000C5B22078392806DC2078302803DB2078AB
:104D5000A0F1300902E02078A0F137092946404649
:104D6000FFF79CFF316809FB00103060641C20785D
:104D700000B900E0E2E700BF0020C2E710B504463A
:104D8000002010700BE020780870641C491C10781B
:104D9000401C10701078984201DB012010BD207873
:104DA000202802D020780028EDD10020087000BF14
:104DB000F4E70146491C00E0491C0878202801D18D
:104DC0000029F9D1087870472DE9FF4F85B080465A
:104DD00089460027002004900390012002904FF0A4
:104DE000000B002544461DE02078202816D005F051
:104DF0007F00052812DA0DB945F0800505F07F0027
:104E0000042803D120782A2800D00EE0207805F06D
:104E10007F010DF80100681CC5B202E0852D00D1AC
:104E200003E0641C20780028DED100BF8DB1002093
:104E300005F07F010DF80100CBA16846FFF706FFE2
:104E400018B900210898017002E00121089801704A
:104E500000254FF0000A444614E0641C0AF10100EA
:104E600000F0FF0A2078202802D020782A2809D1D3
:104E70002046FFF79EFF0646282E03D02A2E01D09B
:104E8000CDF810A02078282802D020780028E4D17E
:104E90004446049810B10498401C04444FF0000AA2
:104EA000002654E0207810B94FF0010A50E0207835
:104EB000282803D116B9781CC7B213E02078292816
:104EC00008D13EB917B1781EC7B201E04FF0010A10
:104ED00047B93DE02078222804D10EB9012000E036
:104EE0000020064647B9207820282FD0207889F85E
:104EF000000009F1010929E020782C2804D10120C3
:104F00000290681CC5B214E02078202811D02078C7
:104F100028280ED04DB9BBF1050F06DA20780DF820
:104F20000B000BF1010000F0FF0B0298401CC0B217
:104F30000290012F0AD10298022807D10298401C42
:104F4000C0B202900398401CC0B20390641CA9E751
:104F500000BF0398012809D100200DF80B0082A1A1
:104F60006846FFF773FE08B900200390079903987D
:104F70000870002089F80000504609B0BDE8F08FA5
:104F8000F0B503461546002000220026002455E017
:104F90001F782C2F01D104B901221F78292F01D0AD
:104FA0001F780FB904B94AE0002E34D11F78302F92
:104FB00002DB1F78392F11DD1F78612F02DB1F788C
:104FC000662F0BDD1F78412F02DB1F78462F05DD92
:104FD0001F78582F02D01F78782F0CD102B12EE005
:104FE0001F78612F03DB1F78203F0F7001E01F78CF
:104FF0000F70491C1FE01F78222F04D102B11EE060
:105000000126012417E01F78202F14D01F782C2FA1
:1050100011D0FF2613E01F78222F00D1002402B107
:105020000DE044B11F785C2F02D15B1C471CF8B225
:105030001F780F70491C471CF8B25B1CA8E700BF23
:1050400000270F702E70F0BD02460020002105E001
:10505000474B5B5C0344D8B24B1CD9B29142F7DB9F
:1050600070472DE9F043B5B005460F4600240026F1
:1050700004E000213E488155701CC6B20A2EF8DBC0
:1050800006E06D1C287818B9012035B0BDE8F08322
:1050900028782828F5D16D1C61E034AA6946284695
:1050A000FFF76EFF064635449DF8D00020B1012879
:1050B00027D0FF284CD149E09DF8000000B333A968
:1050C0006846FFF7F6FD06460EB10220DDE72046F2
:1050D000FFF7BAFF26490A31339A0A50A1F124009A
:1050E000008B0121A140884321491A3908830421FA
:1050F0001F480155601CC4B20A2C01DD0320C4E71F
:1051000026E06846FFF7BEFD401C00F0FF08204681
:10511000FFF79AFF16490A3100EB01094946684634
:10512000FFF7A5FD12481A38018B0120A04001436A
:1051300088B20F491A3908830D4800F80480601CB2
:10514000C4B20A2C01DD03209FE701E002209CE7A6
:1051500000BF2878292801D0287800B900E09CE712
:1051600000BF3C70002090E7766F6964000000008B
:10517000C2000020704700000FB4044910B503AA14
:10518000029800F0F5F910BC5DF814FB4000002017
:1051900070B5044685690068C10601D5302600E077
:1051A0002026C00707D070BDD4E9012130469047C2
:1051B000206A401C20626D1EF6D570BD70B5044695
:1051C00085690078C00707D170BDD4E9012120208E
:1051D0009047206A401C20626D1EF6D570BD70B5E8
:1051E0000C460546012A05D02878800600D5EA69D4
:1051F000002302E0012305E05B1C934202D2E05C45
:105200000028F9D1A869E618C01AA861286A1844CC
:1052100028622846FFF7BCFF04E0D5E9012114F815
:10522000010B9047B442F8D32846FFF7C7FF70BD83
:105230002DE9F0410646002410687529314616A56F
:1052400010D0AFF30080002802DA404213A507E037
:1052500031688A0701D512A502E0490704D511A5D6
:10526000012401E0AFF3008000210A2206F12407A7
:1052700009E0B0FBF2FCB0FBF2F302FB1C003030A3
:1052800078541846491C0028F3D123462A46304654
:10529000BDE8F04100F0FCB8000000002D00000067
:1052A0002B0000002000000070B504460D4621468A
:1052B0001068AFF300802188090502D50F4A7A44AF
:1052C00002E00E4A7A440E32002104F1240305E084
:1052D00000F00F060009965D5E54491C0028F7D1C6
:1052E00020780023000704D5702D02D009B10223D5
:1052F00011322046BDE8704000F0CAB8F60C00003C
:105300002DE9F05F894604464FF0000ADFF874B1DA
:10531000FB44C0F820A02046E1688847002874D0EC
:10532000252806D0D4E901219047206A401C20623C
:10533000F1E700265F462046E168884720280546B9
:1053400007DB312D05D2781910F8200C08B106437F
:10535000F1E7B00701D526F00406C4F81CA0002729
:10536000C4F818A02A2D09D0284600F061F938B3F6
:1053700004EB8708303DC8F8185019E059F8041BB1
:10538000204604EB87029161E1688847012F0546BA
:1053900018D1E069002820DA26F020061DE0D8F8B0
:1053A000180000EB800005EB40003038C8F818000A
:1053B0002046E1688847054600F03AF90028EED11A
:1053C000012F0AD02E2D08D12046E16888477F1C86
:1053D0000546022F46F02006C4DBA069002803DA48
:1053E000404246F00106A061F00701D026F0100609
:1053F0006C2D0BD0682D09D04C2D39D06A2D35D0AD
:10540000742D35D07A2D33D016E038E0E1682F4680
:1054100020468847B842054609D16C2F26D04FF464
:105420008060E168064320468847054604E06C2F0B
:105430001AD04FF4807006430DB3A5F1410019282E
:1054400002D8203546F400664A46294620462660A2
:105450004E46FAF7C7FE80B101280BD0F61D26F0A4
:10546000070000F1080956E74020E4E78020D8E76C
:105470000020D6E706F104094DE7284652E7206AE6
:10548000BDE8F09FCC0C0000704770477047704734
:105490002DE9F0470D4699469246044600F124084E
:1054A0000168880604D5E06921F01001216000E060
:1054B0000120A84201DD471B00E00027A1697A19FD
:1054C00002EB0900081AA0612078C00602D4204629
:1054D000FFF75EFE002608E0D4E901211AF8060075
:1054E0009047206A401C761C20624E45F4DB2078F1
:1054F000C0060AD52046FFF74BFE06E0D4E901219D
:1055000030209047206A401C2062381EA7F1010716
:10551000F4DC07E0D4E9012118F805009047206A7F
:10552000401C2062281EA5F10105F3DC2046FFF790
:1055300045FE2078000602D50220BDE8F087012054
:10554000FBE710B5436913B1AFF3008001E0FFF74B
:1055500046FE012010BD127800F124010A700022DD
:105560004A700122EDE711684FF0FF32E9E70000D1
:10557000074B70B50D467B4400F011F804462846F1
:1055800000F020F810B14FF0FF3070BD204670BD24
:10559000C9C5FFFF01694A1C02610878704700B560
:1055A0008FB0CDE901310021059105497944CDE95C
:1055B000031011466846FFF7A3FE0FB000BD0000C0
:1055C000E5FFFFFF007B00F080007047754600F0AC
:1055D0002BF8AE4605006946534620F00700854685
:1055E00018B020B5FCF790FBBDE820404FF0000656
:1055F0004FF000074FF000084FF0000B21F00701BB
:10560000AC46ACE8C009ACE8C009ACE8C009ACE8FD
:10561000C0098D46704710B50446AFF300802046A0
:10562000BDE81040FAF7FCBD00487047DC010020DF
:1056300030380A2801D2012070470020704700004E
:1056400021F00042A2F16052B2F5801F01F0004348
:1056500028BFD2F17F6C0BD95FEA001C43EAC2027B
:1056600042EB507018BF704728BF20F00100704710
:10567000B2F5801FBCBF184670474FEA410C1CF5BD
:10568000001F02D2084600F092BC70B500F03AFA52
:1056900000000089FFF7F6BF4FF00040A0F5800042
:1056A000704700002DE9C04130B4DFF8A0C23CEAE9
:1056B000111418BF3CEA131400F0EC8081EA0305D2
:1056C0001CEA111444EAD57418BF1CEA131500F043
:1056D000C780A4EB05044FF0004545EAC12145EA27
:1056E000C32341EA505143EA525304F17F74994273
:1056F00004F500344FEAC0204FEAC22208BF9042AE
:1057000000F09C804FEA13650FF24016765D4FEA79
:10571000134506FB05F7C7F1807706FB07F74FEA4D
:10572000D737A7FB03687642C8F58038A7FB06CEBB
:1057300038BFA8F1010807FB08E64FF0000EA6FBF2
:10574000028CE6FB03CEDCF1000CCEF1004E38BF3C
:10575000AEF1010EA6FB0C584FF000074FF000050C
:10576000E6FB0E87A1FB08C6A0FB07CE16EB0E06D4
:1057700045F10005E1FB076515F1E04E7EBFA4F59C
:1057800080345FEA46066D4116F1800745F1000559
:105790004FEA17274FEA066647EA0567A6F1DE4695
:1057A000B6F1805F4FEA15251FD9384624F0010C69
:1057B00005EBC471BCF1FE6F01EB0C1102D8F0BC1B
:1057C000BDE8008124425CBF01F5801E9EEAC47FD3
:1057D00002D4F0BCBDE80081244238D4F0BCA1F171
:1057E000C041BDE8004100F0DBB94FEAD22242EAF5
:1057F00043524FEAD323A7FB02864FEAD02040EA68
:10580000415007FB03661EEA0E0F4FEAD12105FB4C
:10581000026658BFA6EB0056B6EB00564FEA520E92
:105820004EEAC37E18EB0E0E56EB530EBDD518EBA9
:1058300002085E417F1C55F10005B6E74FF4801564
:105840004FF000074FF000064FF00008ADE7F0BC46
:105850004FF0000001F1C04101F00041BDE80081BE
:1058600011EA0C1F0CEA131500D00CE013EA0C1F10
:1058700000F025804FF00000F0BC81EA030101F048
:105880000041BDE80081F0BCBDE8004181EA0301B0
:1058900000F086B9F0BCBDE8004170B500F032F907
:1058A000097EFC3E00F007B881EA03014FF00000DA
:1058B00001F00041704781EA030100F071B9F0BCCA
:1058C000BDE800414FF0000021497047FFFDFBF9A2
:1058D000F7F5F4F2F0EEEDEBE9E8E6E4E3E1E0DE23
:1058E000DDDBDAD8D7D5D4D3D1D0CFCDCCCBCAC895
:1058F000C7C6C5C4C2C1C0BFBEBDBCBBBAB9B8B7BC
:10590000B6B5B4B3B2B1B0AFAEADACABAAA9A8A8AE
:10591000A7A6A5A4A3A3A2A1A09F9F9E9D9C9C9B7C
:105920009A99999897979695959493939291919027
:105930008F8F8E8E8D8C8C8B8B8A898988888787B8
:105940008685858484838382828181800000FF072D
:105950000000F87F4FEA1153A3F58063D3F11E03D3
:10596000A8BFD3F1200C08DB4FF0004242EAC1226D
:1059700052EA505232FA03F0704709420BD4102B0E
:10598000C4BF0020704703F5787CBCF1FF3F05D011
:105990004FF0FF3070474FF00000704770B500F0D7
:1059A000B1F800BF4992248000207047F0E7000062
:1059B000DFF848C170B51CEA111E1EBF1CEA1315A2
:1059C0009EEA0C0F95EA0C0F00F06F8081EA030449
:1059D00023EA4C134EEAD47E21EA4C1141F48011A3
:1059E00043F48013AE44A1FB024CA0FB0365AEF16F
:1059F0007F7E361955EB0C05A1FB034C4CF10003DF
:105A0000A0FB021C16EB0C06654153F10003094292
:105A100018BF46F0010613F4007F0BD14FEA0331A3
:105A20004FEA0530340341EA155140EA16506FF051
:105A300003020AE04FEAC3214FEAC520F40241EA1B
:105A4000555140EA56506FF0020202EB2E4201EB34
:105A5000025585EACE710AD05FEA440C18BF24F0E3
:105A6000004450F1000041F1000120EAD47040F2FE
:105A7000FE7C624500D270BDA84214BF4FF0804446
:105A80004FF04044002E08BF0024BEF1806FA8BF35
:105A9000A1F1C041BDE8704080F282804FF000006B
:105AA00001F1C04101F0004170479EEA0C0F0CEA81
:105AB000131518BF95EA0C0F06D04FF0000081EACD
:105AC000030E0EF0004170BD00F01CF88900013E8D
:105AD00000F007B800F009B84FEA430C5FEA5C5CDD
